{"abi":[{"type":"constructor","inputs":[{"name":"template","type":"address","internalType":"address"}],"stateMutability":"nonpayable"},{"type":"function","name":"createToken","inputs":[{"name":"name","type":"string","internalType":"string"},{"name":"symbol","type":"string","internalType":"string"}],"outputs":[{"name":"","type":"address","internalType":"address"}],"stateMutability":"payable"},{"type":"function","name":"getTokenAddress","inputs":[{"name":"index","type":"uint256","internalType":"uint256"}],"outputs":[{"name":"","type":"address","internalType":"address"}],"stateMutability":"view"},{"type":"function","name":"getTokenCount","inputs":[],"outputs":[{"name":"","type":"uint256","internalType":"uint256"}],"stateMutability":"view"},{"type":"function","name":"owner","inputs":[],"outputs":[{"name":"","type":"address","internalType":"address"}],"stateMutability":"view"},{"type":"function","name":"predictNextAddress","inputs":[],"outputs":[{"name":"","type":"address","internalType":"address"}],"stateMutability":"view"},{"type":"function","name":"renounceOwnership","inputs":[],"outputs":[],"stateMutability":"nonpayable"},{"type":"function","name":"tokenTemplate","inputs":[],"outputs":[{"name":"","type":"address","internalType":"address"}],"stateMutability":"view"},{"type":"function","name":"transferOwnership","inputs":[{"name":"newOwner","type":"address","internalType":"address"}],"outputs":[],"stateMutability":"nonpayable"},{"type":"event","name":"OwnershipTransferred","inputs":[{"name":"previousOwner","type":"address","indexed":true,"internalType":"address"},{"name":"newOwner","type":"address","indexed":true,"internalType":"address"}],"anonymous":false},{"type":"event","name":"TokenCreated","inputs":[{"name":"tokenAddress","type":"address","indexed":false,"internalType":"address"}],"anonymous":false},{"type":"error","name":"ERC1167FailedCreateClone","inputs":[]},{"type":"error","name":"OwnableInvalidOwner","inputs":[{"name":"owner","type":"address","internalType":"address"}]},{"type":"error","name":"OwnableUnauthorizedAccount","inputs":[{"name":"account","type":"address","internalType":"address"}]}],"bytecode":{"object":"0x608060405234801561001057600080fd5b5060405161077038038061077083398101604081905261002f916100d4565b338061005557604051631e4fbdf760e01b81526000600482015260240160405180910390fd5b61005e81610084565b50600180546001600160a01b0319166001600160a01b0392909216919091179055610104565b600080546001600160a01b038381166001600160a01b0319831681178455604051919092169283917f8be0079c531659141344cd1fd0a4f28419497f9722a3daafe3b4186f6b6457e09190a35050565b6000602082840312156100e657600080fd5b81516001600160a01b03811681146100fd57600080fd5b9392505050565b61065d806101136000396000f3fe60806040526004361061007b5760003560e01c806378a895671161004e57806378a89567146101075780638da5cb5b14610125578063da47dd4514610143578063f2fde38b1461015857600080fd5b80630814d3dd146100805780632f2f2d56146100bd57806367ccdf38146100d0578063715018a6146100f0575b600080fd5b34801561008c57600080fd5b506001546100a0906001600160a01b031681565b6040516001600160a01b0390911681526020015b60405180910390f35b6100a06100cb3660046104d7565b610178565b3480156100dc57600080fd5b506100a06100eb366004610540565b610251565b3480156100fc57600080fd5b5061010561026a565b005b34801561011357600080fd5b506002546040519081526020016100b4565b34801561013157600080fd5b506000546001600160a01b03166100a0565b34801561014f57600080fd5b506100a061027e565b34801561016457600080fd5b50610105610173366004610559565b6102a1565b600254600090610189816001610582565b6002556001546000906101a5906001600160a01b0316836102e4565b6040516303bf912560e11b81529091506001600160a01b0382169063077f224a906101d8908890889033906004016105e9565b600060405180830381600087803b1580156101f257600080fd5b505af1158015610206573d6000803e3d6000fd5b50506040516001600160a01b03841681527f2e2b3f61b70d2d131b2a807371103cc98d51adcaa5e9a8f9c32658ad8426e74e9250602001905060405180910390a19150505b92915050565b60015460009061024b906001600160a01b031683610352565b6102726103b5565b61027c60006103e2565b565b60015460025460009161029c916001600160a01b0390911690610352565b905090565b6102a96103b5565b6001600160a01b0381166102d857604051631e4fbdf760e01b8152600060048201526024015b60405180910390fd5b6102e1816103e2565b50565b6000763d602d80600a3d3981f3363d3d373d3d3d363d730000008360601b60e81c176000526e5af43d82803e903d91602b57fd5bf38360781b1760205281603760096000f590506001600160a01b03811661024b576040516330be1a3d60e21b815260040160405180910390fd5b6040513060388201526f5af43d82803e903d91602b57fd5bf3ff602482015260148101839052733d602d80600a3d3981f3363d3d373d3d3d363d738152605881018290526037600c820120607882015260556043909101206000905b9392505050565b6000546001600160a01b0316331461027c5760405163118cdaa760e01b81523360048201526024016102cf565b600080546001600160a01b038381166001600160a01b0319831681178455604051919092169283917f8be0079c531659141344cd1fd0a4f28419497f9722a3daafe3b4186f6b6457e09190a35050565b634e487b7160e01b600052604160045260246000fd5b600082601f83011261045957600080fd5b813567ffffffffffffffff81111561047357610473610432565b604051601f8201601f19908116603f0116810167ffffffffffffffff811182821017156104a2576104a2610432565b6040528181528382016020018510156104ba57600080fd5b816020850160208301376000918101602001919091529392505050565b600080604083850312156104ea57600080fd5b823567ffffffffffffffff81111561050157600080fd5b61050d85828601610448565b925050602083013567ffffffffffffffff81111561052a57600080fd5b61053685828601610448565b9150509250929050565b60006020828403121561055257600080fd5b5035919050565b60006020828403121561056b57600080fd5b81356001600160a01b03811681146103ae57600080fd5b8082018082111561024b57634e487b7160e01b600052601160045260246000fd5b6000815180845260005b818110156105c9576020818501810151868301820152016105ad565b506000602082860101526020601f19601f83011685010191505092915050565b6060815260006105fc60608301866105a3565b828103602084015261060e81866105a3565b91505060018060a01b038316604083015294935050505056fea2646970667358221220946a2fdbd8b9377b0d4176771562aa482d85f6fd521b40b4bdead501ca15ba6a64736f6c634300081b0033","linkReferences":{}},"methodIdentifiers":{"createToken(string,string)":"2f2f2d56","getTokenAddress(uint256)":"67ccdf38","getTokenCount()":"78a89567","owner()":"8da5cb5b","predictNextAddress()":"da47dd45","renounceOwnership()":"715018a6","tokenTemplate()":"0814d3dd","transferOwnership(address)":"f2fde38b"},"id":32}