{
    "abi": [
        {
            "type": "constructor",
            "inputs": [
                {
                    "name": "initialName",
                    "type": "string",
                    "internalType": "string"
                },
                {
                    "name": "initialSymbol",
                    "type": "string",
                    "internalType": "string"
                },
                {
                    "name": "initialSupply",
                    "type": "uint256",
                    "internalType": "uint256"
                }
            ],
            "stateMutability": "nonpayable"
        },
        {
            "type": "function",
            "name": "allowance",
            "inputs": [
                {
                    "name": "owner",
                    "type": "address",
                    "internalType": "address"
                },
                {
                    "name": "spender",
                    "type": "address",
                    "internalType": "address"
                }
            ],
            "outputs": [
                {
                    "name": "",
                    "type": "uint256",
                    "internalType": "uint256"
                }
            ],
            "stateMutability": "view"
        },
        {
            "type": "function",
            "name": "approve",
            "inputs": [
                {
                    "name": "spender",
                    "type": "address",
                    "internalType": "address"
                },
                {
                    "name": "value",
                    "type": "uint256",
                    "internalType": "uint256"
                }
            ],
            "outputs": [
                {
                    "name": "",
                    "type": "bool",
                    "internalType": "bool"
                }
            ],
            "stateMutability": "nonpayable"
        },
        {
            "type": "function",
            "name": "balanceOf",
            "inputs": [
                {
                    "name": "account",
                    "type": "address",
                    "internalType": "address"
                }
            ],
            "outputs": [
                {
                    "name": "",
                    "type": "uint256",
                    "internalType": "uint256"
                }
            ],
            "stateMutability": "view"
        },
        {
            "type": "function",
            "name": "decimals",
            "inputs": [],
            "outputs": [
                {
                    "name": "",
                    "type": "uint8",
                    "internalType": "uint8"
                }
            ],
            "stateMutability": "view"
        },
        {
            "type": "function",
            "name": "isMinter",
            "inputs": [
                {
                    "name": "",
                    "type": "address",
                    "internalType": "address"
                }
            ],
            "outputs": [
                {
                    "name": "",
                    "type": "bool",
                    "internalType": "bool"
                }
            ],
            "stateMutability": "view"
        },
        {
            "type": "function",
            "name": "mint",
            "inputs": [],
            "outputs": [],
            "stateMutability": "nonpayable"
        },
        {
            "type": "function",
            "name": "name",
            "inputs": [],
            "outputs": [
                {
                    "name": "",
                    "type": "string",
                    "internalType": "string"
                }
            ],
            "stateMutability": "view"
        },
        {
            "type": "function",
            "name": "symbol",
            "inputs": [],
            "outputs": [
                {
                    "name": "",
                    "type": "string",
                    "internalType": "string"
                }
            ],
            "stateMutability": "view"
        },
        {
            "type": "function",
            "name": "totalSupply",
            "inputs": [],
            "outputs": [
                {
                    "name": "",
                    "type": "uint256",
                    "internalType": "uint256"
                }
            ],
            "stateMutability": "view"
        },
        {
            "type": "function",
            "name": "transfer",
            "inputs": [
                {
                    "name": "to",
                    "type": "address",
                    "internalType": "address"
                },
                {
                    "name": "value",
                    "type": "uint256",
                    "internalType": "uint256"
                }
            ],
            "outputs": [
                {
                    "name": "",
                    "type": "bool",
                    "internalType": "bool"
                }
            ],
            "stateMutability": "nonpayable"
        },
        {
            "type": "function",
            "name": "transferFrom",
            "inputs": [
                {
                    "name": "from",
                    "type": "address",
                    "internalType": "address"
                },
                {
                    "name": "to",
                    "type": "address",
                    "internalType": "address"
                },
                {
                    "name": "value",
                    "type": "uint256",
                    "internalType": "uint256"
                }
            ],
            "outputs": [
                {
                    "name": "",
                    "type": "bool",
                    "internalType": "bool"
                }
            ],
            "stateMutability": "nonpayable"
        },
        {
            "type": "event",
            "name": "Approval",
            "inputs": [
                {
                    "name": "owner",
                    "type": "address",
                    "indexed": true,
                    "internalType": "address"
                },
                {
                    "name": "spender",
                    "type": "address",
                    "indexed": true,
                    "internalType": "address"
                },
                {
                    "name": "value",
                    "type": "uint256",
                    "indexed": false,
                    "internalType": "uint256"
                }
            ],
            "anonymous": false
        },
        {
            "type": "event",
            "name": "TokenMinted",
            "inputs": [
                {
                    "name": "amount",
                    "type": "uint256",
                    "indexed": false,
                    "internalType": "uint256"
                },
                {
                    "name": "time",
                    "type": "uint256",
                    "indexed": false,
                    "internalType": "uint256"
                },
                {
                    "name": "sender",
                    "type": "address",
                    "indexed": true,
                    "internalType": "address"
                }
            ],
            "anonymous": false
        },
        {
            "type": "event",
            "name": "Transfer",
            "inputs": [
                {
                    "name": "from",
                    "type": "address",
                    "indexed": true,
                    "internalType": "address"
                },
                {
                    "name": "to",
                    "type": "address",
                    "indexed": true,
                    "internalType": "address"
                },
                {
                    "name": "value",
                    "type": "uint256",
                    "indexed": false,
                    "internalType": "uint256"
                }
            ],
            "anonymous": false
        },
        {
            "type": "error",
            "name": "ERC20InsufficientAllowance",
            "inputs": [
                {
                    "name": "spender",
                    "type": "address",
                    "internalType": "address"
                },
                {
                    "name": "allowance",
                    "type": "uint256",
                    "internalType": "uint256"
                },
                {
                    "name": "needed",
                    "type": "uint256",
                    "internalType": "uint256"
                }
            ]
        },
        {
            "type": "error",
            "name": "ERC20InsufficientBalance",
            "inputs": [
                {
                    "name": "sender",
                    "type": "address",
                    "internalType": "address"
                },
                {
                    "name": "balance",
                    "type": "uint256",
                    "internalType": "uint256"
                },
                {
                    "name": "needed",
                    "type": "uint256",
                    "internalType": "uint256"
                }
            ]
        },
        {
            "type": "error",
            "name": "ERC20InvalidApprover",
            "inputs": [
                {
                    "name": "approver",
                    "type": "address",
                    "internalType": "address"
                }
            ]
        },
        {
            "type": "error",
            "name": "ERC20InvalidReceiver",
            "inputs": [
                {
                    "name": "receiver",
                    "type": "address",
                    "internalType": "address"
                }
            ]
        },
        {
            "type": "error",
            "name": "ERC20InvalidSender",
            "inputs": [
                {
                    "name": "sender",
                    "type": "address",
                    "internalType": "address"
                }
            ]
        },
        {
            "type": "error",
            "name": "ERC20InvalidSpender",
            "inputs": [
                {
                    "name": "spender",
                    "type": "address",
                    "internalType": "address"
                }
            ]
        }
    ],
    "bytecode": {
        "object": "0x608060405234801561000f575f5ffd5b50604051611a6e380380611a6e833981810160405281019061003191906104db565b82828160039081610042919061076a565b508060049081610052919061076a565b50505061006533826100bd60201b60201c565b3373ffffffffffffffffffffffffffffffffffffffff167ff371d67483809edbc84279729528d26a3e37ce67f1e3a911778dbf88ff927ca282426040516100ad929190610848565b60405180910390a2505050610975565b5f73ffffffffffffffffffffffffffffffffffffffff168273ffffffffffffffffffffffffffffffffffffffff160361012d575f6040517fec442f0500000000000000000000000000000000000000000000000000000000815260040161012491906108ae565b60405180910390fd5b61013e5f838361014260201b60201c565b5050565b5f73ffffffffffffffffffffffffffffffffffffffff168373ffffffffffffffffffffffffffffffffffffffff1603610192578060025f82825461018691906108f4565b92505081905550610260565b5f5f5f8573ffffffffffffffffffffffffffffffffffffffff1673ffffffffffffffffffffffffffffffffffffffff1681526020019081526020015f205490508181101561021b578381836040517fe450d38c00000000000000000000000000000000000000000000000000000000815260040161021293929190610927565b60405180910390fd5b8181035f5f8673ffffffffffffffffffffffffffffffffffffffff1673ffffffffffffffffffffffffffffffffffffffff1681526020019081526020015f2081905550505b5f73ffffffffffffffffffffffffffffffffffffffff168273ffffffffffffffffffffffffffffffffffffffff16036102a7578060025f82825403925050819055506102f1565b805f5f8473ffffffffffffffffffffffffffffffffffffffff1673ffffffffffffffffffffffffffffffffffffffff1681526020019081526020015f205f82825401925050819055505b8173ffffffffffffffffffffffffffffffffffffffff168373ffffffffffffffffffffffffffffffffffffffff167fddf252ad1be2c89b69c2b068fc378daa952ba7f163c4a11628f55a4df523b3ef8360405161034e919061095c565b60405180910390a3505050565b5f604051905090565b5f5ffd5b5f5ffd5b5f5ffd5b5f5ffd5b5f601f19601f8301169050919050565b7f4e487b71000000000000000000000000000000000000000000000000000000005f52604160045260245ffd5b6103ba82610374565b810181811067ffffffffffffffff821117156103d9576103d8610384565b5b80604052505050565b5f6103eb61035b565b90506103f782826103b1565b919050565b5f67ffffffffffffffff82111561041657610415610384565b5b61041f82610374565b9050602081019050919050565b8281835e5f83830152505050565b5f61044c610447846103fc565b6103e2565b90508281526020810184848401111561046857610467610370565b5b61047384828561042c565b509392505050565b5f82601f83011261048f5761048e61036c565b5b815161049f84826020860161043a565b91505092915050565b5f819050919050565b6104ba816104a8565b81146104c4575f5ffd5b50565b5f815190506104d5816104b1565b92915050565b5f5f5f606084860312156104f2576104f1610364565b5b5f84015167ffffffffffffffff81111561050f5761050e610368565b5b61051b8682870161047b565b935050602084015167ffffffffffffffff81111561053c5761053b610368565b5b6105488682870161047b565b9250506040610559868287016104c7565b9150509250925092565b5f81519050919050565b7f4e487b71000000000000000000000000000000000000000000000000000000005f52602260045260245ffd5b5f60028204905060018216806105b157607f821691505b6020821081036105c4576105c361056d565b5b50919050565b5f819050815f5260205f209050919050565b5f6020601f8301049050919050565b5f82821b905092915050565b5f600883026106267fffffffffffffffffffffffffffffffffffffffffffffffffffffffffffffffff826105eb565b61063086836105eb565b95508019841693508086168417925050509392505050565b5f819050919050565b5f61066b610666610661846104a8565b610648565b6104a8565b9050919050565b5f819050919050565b61068483610651565b61069861069082610672565b8484546105f7565b825550505050565b5f5f905090565b6106af6106a0565b6106ba81848461067b565b505050565b5b818110156106dd576106d25f826106a7565b6001810190506106c0565b5050565b601f821115610722576106f3816105ca565b6106fc846105dc565b8101602085101561070b578190505b61071f610717856105dc565b8301826106bf565b50505b505050565b5f82821c905092915050565b5f6107425f1984600802610727565b1980831691505092915050565b5f61075a8383610733565b9150826002028217905092915050565b61077382610563565b67ffffffffffffffff81111561078c5761078b610384565b5b610796825461059a565b6107a18282856106e1565b5f60209050601f8311600181146107d2575f84156107c0578287015190505b6107ca858261074f565b865550610831565b601f1984166107e0866105ca565b5f5b82811015610807578489015182556001820191506020850194506020810190506107e2565b868310156108245784890151610820601f891682610733565b8355505b6001600288020188555050505b505050505050565b610842816104a8565b82525050565b5f60408201905061085b5f830185610839565b6108686020830184610839565b9392505050565b5f73ffffffffffffffffffffffffffffffffffffffff82169050919050565b5f6108988261086f565b9050919050565b6108a88161088e565b82525050565b5f6020820190506108c15f83018461089f565b92915050565b7f4e487b71000000000000000000000000000000000000000000000000000000005f52601160045260245ffd5b5f6108fe826104a8565b9150610909836104a8565b9250828201905080821115610921576109206108c7565b5b92915050565b5f60608201905061093a5f83018661089f565b6109476020830185610839565b6109546040830184610839565b949350505050565b5f60208201905061096f5f830184610839565b92915050565b6110ec806109825f395ff3fe608060405234801561000f575f5ffd5b50600436106100a7575f3560e01c8063313ce5671161006f578063313ce5671461015157806370a082311461016f57806395d89b411461019f578063a9059cbb146101bd578063aa271e1a146101ed578063dd62ed3e1461021d576100a7565b806306fdde03146100ab578063095ea7b3146100c95780631249c58b146100f957806318160ddd1461010357806323b872dd14610121575b5f5ffd5b6100b361024d565b6040516100c09190610c94565b60405180910390f35b6100e360048036038101906100de9190610d45565b6102dd565b6040516100f09190610d9d565b60405180910390f35b6101016102ff565b005b61010b61044c565b6040516101189190610dc5565b60405180910390f35b61013b60048036038101906101369190610dde565b610455565b6040516101489190610d9d565b60405180910390f35b610159610483565b6040516101669190610e49565b60405180910390f35b61018960048036038101906101849190610e62565b61048b565b6040516101969190610dc5565b60405180910390f35b6101a76104d0565b6040516101b49190610c94565b60405180910390f35b6101d760048036038101906101d29190610d45565b610560565b6040516101e49190610d9d565b60405180910390f35b61020760048036038101906102029190610e62565b610582565b6040516102149190610d9d565b60405180910390f35b61023760048036038101906102329190610e8d565b61059f565b6040516102449190610dc5565b60405180910390f35b60606003805461025c90610ef8565b80601f016020809104026020016040519081016040528092919081815260200182805461028890610ef8565b80156102d35780601f106102aa576101008083540402835291602001916102d3565b820191905f5260205f20905b8154815290600101906020018083116102b657829003601f168201915b5050505050905090565b5f5f6102e7610621565b90506102f4818585610628565b600191505092915050565b60055f3373ffffffffffffffffffffffffffffffffffffffff1673ffffffffffffffffffffffffffffffffffffffff1681526020019081526020015f205f9054906101000a900460ff1615610389576040517f08c379a000000000000000000000000000000000000000000000000000000000815260040161038090610f72565b60405180910390fd5b61039c33683635c9adc5dea0000061063a565b600160055f3373ffffffffffffffffffffffffffffffffffffffff1673ffffffffffffffffffffffffffffffffffffffff1681526020019081526020015f205f6101000a81548160ff0219169083151502179055503373ffffffffffffffffffffffffffffffffffffffff167ff371d67483809edbc84279729528d26a3e37ce67f1e3a911778dbf88ff927ca2683635c9adc5dea0000042604051610442929190610fd2565b60405180910390a2565b5f600254905090565b5f5f61045f610621565b905061046c8582856106b9565b61047785858561074c565b60019150509392505050565b5f6012905090565b5f5f5f8373ffffffffffffffffffffffffffffffffffffffff1673ffffffffffffffffffffffffffffffffffffffff1681526020019081526020015f20549050919050565b6060600480546104df90610ef8565b80601f016020809104026020016040519081016040528092919081815260200182805461050b90610ef8565b80156105565780601f1061052d57610100808354040283529160200191610556565b820191905f5260205f20905b81548152906001019060200180831161053957829003601f168201915b5050505050905090565b5f5f61056a610621565b905061057781858561074c565b600191505092915050565b6005602052805f5260405f205f915054906101000a900460ff1681565b5f60015f8473ffffffffffffffffffffffffffffffffffffffff1673ffffffffffffffffffffffffffffffffffffffff1681526020019081526020015f205f8373ffffffffffffffffffffffffffffffffffffffff1673ffffffffffffffffffffffffffffffffffffffff1681526020019081526020015f2054905092915050565b5f33905090565b610635838383600161083c565b505050565b5f73ffffffffffffffffffffffffffffffffffffffff168273ffffffffffffffffffffffffffffffffffffffff16036106aa575f6040517fec442f050000000000000000000000000000000000000000000000000000000081526004016106a19190611008565b60405180910390fd5b6106b55f8383610a0b565b5050565b5f6106c4848461059f565b90507fffffffffffffffffffffffffffffffffffffffffffffffffffffffffffffffff8110156107465781811015610737578281836040517ffb8f41b200000000000000000000000000000000000000000000000000000000815260040161072e93929190611021565b60405180910390fd5b61074584848484035f61083c565b5b50505050565b5f73ffffffffffffffffffffffffffffffffffffffff168373ffffffffffffffffffffffffffffffffffffffff16036107bc575f6040517f96c6fd1e0000000000000000000000000000000000000000000000000000000081526004016107b39190611008565b60405180910390fd5b5f73ffffffffffffffffffffffffffffffffffffffff168273ffffffffffffffffffffffffffffffffffffffff160361082c575f6040517fec442f050000000000000000000000000000000000000000000000000000000081526004016108239190611008565b60405180910390fd5b610837838383610a0b565b505050565b5f73ffffffffffffffffffffffffffffffffffffffff168473ffffffffffffffffffffffffffffffffffffffff16036108ac575f6040517fe602df050000000000000000000000000000000000000000000000000000000081526004016108a39190611008565b60405180910390fd5b5f73ffffffffffffffffffffffffffffffffffffffff168373ffffffffffffffffffffffffffffffffffffffff160361091c575f6040517f94280d620000000000000000000000000000000000000000000000000000000081526004016109139190611008565b60405180910390fd5b8160015f8673ffffffffffffffffffffffffffffffffffffffff1673ffffffffffffffffffffffffffffffffffffffff1681526020019081526020015f205f8573ffffffffffffffffffffffffffffffffffffffff1673ffffffffffffffffffffffffffffffffffffffff1681526020019081526020015f20819055508015610a05578273ffffffffffffffffffffffffffffffffffffffff168473ffffffffffffffffffffffffffffffffffffffff167f8c5be1e5ebec7d5bd14f71427d1e84f3dd0314c0f7b2291e5b200ac8c7c3b925846040516109fc9190610dc5565b60405180910390a35b50505050565b5f73ffffffffffffffffffffffffffffffffffffffff168373ffffffffffffffffffffffffffffffffffffffff1603610a5b578060025f828254610a4f9190611083565b92505081905550610b29565b5f5f5f8573ffffffffffffffffffffffffffffffffffffffff1673ffffffffffffffffffffffffffffffffffffffff1681526020019081526020015f2054905081811015610ae4578381836040517fe450d38c000000000000000000000000000000000000000000000000000000008152600401610adb93929190611021565b60405180910390fd5b8181035f5f8673ffffffffffffffffffffffffffffffffffffffff1673ffffffffffffffffffffffffffffffffffffffff1681526020019081526020015f2081905550505b5f73ffffffffffffffffffffffffffffffffffffffff168273ffffffffffffffffffffffffffffffffffffffff1603610b70578060025f8282540392505081905550610bba565b805f5f8473ffffffffffffffffffffffffffffffffffffffff1673ffffffffffffffffffffffffffffffffffffffff1681526020019081526020015f205f82825401925050819055505b8173ffffffffffffffffffffffffffffffffffffffff168373ffffffffffffffffffffffffffffffffffffffff167fddf252ad1be2c89b69c2b068fc378daa952ba7f163c4a11628f55a4df523b3ef83604051610c179190610dc5565b60405180910390a3505050565b5f81519050919050565b5f82825260208201905092915050565b8281835e5f83830152505050565b5f601f19601f8301169050919050565b5f610c6682610c24565b610c708185610c2e565b9350610c80818560208601610c3e565b610c8981610c4c565b840191505092915050565b5f6020820190508181035f830152610cac8184610c5c565b905092915050565b5f5ffd5b5f73ffffffffffffffffffffffffffffffffffffffff82169050919050565b5f610ce182610cb8565b9050919050565b610cf181610cd7565b8114610cfb575f5ffd5b50565b5f81359050610d0c81610ce8565b92915050565b5f819050919050565b610d2481610d12565b8114610d2e575f5ffd5b50565b5f81359050610d3f81610d1b565b92915050565b5f5f60408385031215610d5b57610d5a610cb4565b5b5f610d6885828601610cfe565b9250506020610d7985828601610d31565b9150509250929050565b5f8115159050919050565b610d9781610d83565b82525050565b5f602082019050610db05f830184610d8e565b92915050565b610dbf81610d12565b82525050565b5f602082019050610dd85f830184610db6565b92915050565b5f5f5f60608486031215610df557610df4610cb4565b5b5f610e0286828701610cfe565b9350506020610e1386828701610cfe565b9250506040610e2486828701610d31565b9150509250925092565b5f60ff82169050919050565b610e4381610e2e565b82525050565b5f602082019050610e5c5f830184610e3a565b92915050565b5f60208284031215610e7757610e76610cb4565b5b5f610e8484828501610cfe565b91505092915050565b5f5f60408385031215610ea357610ea2610cb4565b5b5f610eb085828601610cfe565b9250506020610ec185828601610cfe565b9150509250929050565b7f4e487b71000000000000000000000000000000000000000000000000000000005f52602260045260245ffd5b5f6002820490506001821680610f0f57607f821691505b602082108103610f2257610f21610ecb565b5b50919050565b7f596f7520617265206e6f742061206d696e7465720000000000000000000000005f82015250565b5f610f5c601483610c2e565b9150610f6782610f28565b602082019050919050565b5f6020820190508181035f830152610f8981610f50565b9050919050565b5f819050919050565b5f819050919050565b5f610fbc610fb7610fb284610f90565b610f99565b610d12565b9050919050565b610fcc81610fa2565b82525050565b5f604082019050610fe55f830185610fc3565b610ff26020830184610db6565b9392505050565b61100281610cd7565b82525050565b5f60208201905061101b5f830184610ff9565b92915050565b5f6060820190506110345f830186610ff9565b6110416020830185610db6565b61104e6040830184610db6565b949350505050565b7f4e487b71000000000000000000000000000000000000000000000000000000005f52601160045260245ffd5b5f61108d82610d12565b915061109883610d12565b92508282019050808211156110b0576110af611056565b5b9291505056fea26469706673582212201f203768547f61bcc654c33a7f4c39a9a7e7dc80c1528646163e633e9c7e72b364736f6c634300081b0033",
        "linkReferences": {}
    },
    "methodIdentifiers": {
        "allowance(address,address)": "dd62ed3e",
        "approve(address,uint256)": "095ea7b3",
        "balanceOf(address)": "70a08231",
        "decimals()": "313ce567",
        "isMinter(address)": "aa271e1a",
        "mint()": "1249c58b",
        "name()": "06fdde03",
        "symbol()": "95d89b41",
        "totalSupply()": "18160ddd",
        "transfer(address,uint256)": "a9059cbb",
        "transferFrom(address,address,uint256)": "23b872dd"
    },
    "id": 20
}