{"abi":[{"type":"constructor","inputs":[],"stateMutability":"nonpayable"},{"type":"receive","stateMutability":"payable"},{"type":"function","name":"DEFAULT_ADMIN_ROLE","inputs":[],"outputs":[{"name":"","type":"bytes32","internalType":"bytes32"}],"stateMutability":"view"},{"type":"function","name":"NODE_CALLER_ROLE","inputs":[],"outputs":[{"name":"","type":"bytes32","internalType":"bytes32"}],"stateMutability":"view"},{"type":"function","name":"UPGRADER_ROLE","inputs":[],"outputs":[{"name":"","type":"bytes32","internalType":"bytes32"}],"stateMutability":"view"},{"type":"function","name":"UPGRADE_INTERFACE_VERSION","inputs":[],"outputs":[{"name":"","type":"string","internalType":"string"}],"stateMutability":"view"},{"type":"function","name":"_sortWeightedValues","inputs":[{"name":"data","type":"tuple[]","internalType":"struct NodeCommitteeV2.WeightedValue[]","components":[{"name":"value","type":"uint256","internalType":"uint256"},{"name":"weight","type":"uint256","internalType":"uint256"}]}],"outputs":[{"name":"","type":"tuple[]","internalType":"struct NodeCommitteeV2.WeightedValue[]","components":[{"name":"value","type":"uint256","internalType":"uint256"},{"name":"weight","type":"uint256","internalType":"uint256"}]}],"stateMutability":"view"},{"type":"function","name":"burnFeePercentage","inputs":[],"outputs":[{"name":"","type":"uint256","internalType":"uint256"}],"stateMutability":"view"},{"type":"function","name":"finaliseEpoch","inputs":[],"outputs":[],"stateMutability":"nonpayable"},{"type":"function","name":"getCurrentEpochCommittee","inputs":[],"outputs":[{"name":"","type":"tuple[]","internalType":"struct INodeCommitteeV2.Node[]","components":[{"name":"nodeAddress","type":"address","internalType":"address"},{"name":"stakedAmount","type":"uint256","internalType":"uint256"},{"name":"publicKeys","type":"tuple","internalType":"struct INodeCommitteeV2.PublicKeys","components":[{"name":"ecdsaPublicKey","type":"bytes","internalType":"bytes"},{"name":"blsPublicKey","type":"bytes","internalType":"bytes"},{"name":"proofOfPossession","type":"bytes","internalType":"bytes"},{"name":"proofOfAddress","type":"bytes","internalType":"bytes"}]}]}],"stateMutability":"view"},{"type":"function","name":"getCurrentGasPrice","inputs":[{"name":"baseFee","type":"uint256","internalType":"uint256"}],"outputs":[{"name":"","type":"uint256","internalType":"uint256"}],"stateMutability":"view"},{"type":"function","name":"getFinalisedNodes","inputs":[],"outputs":[{"name":"","type":"tuple[]","internalType":"struct INodeCommitteeV2.Node[]","components":[{"name":"nodeAddress","type":"address","internalType":"address"},{"name":"stakedAmount","type":"uint256","internalType":"uint256"},{"name":"publicKeys","type":"tuple","internalType":"struct INodeCommitteeV2.PublicKeys","components":[{"name":"ecdsaPublicKey","type":"bytes","internalType":"bytes"},{"name":"blsPublicKey","type":"bytes","internalType":"bytes"},{"name":"proofOfPossession","type":"bytes","internalType":"bytes"},{"name":"proofOfAddress","type":"bytes","internalType":"bytes"}]}]}],"stateMutability":"view"},{"type":"function","name":"getNextEpochCommittee","inputs":[],"outputs":[{"name":"","type":"tuple[]","internalType":"struct INodeCommitteeV2.Node[]","components":[{"name":"nodeAddress","type":"address","internalType":"address"},{"name":"stakedAmount","type":"uint256","internalType":"uint256"},{"name":"publicKeys","type":"tuple","internalType":"struct INodeCommitteeV2.PublicKeys","components":[{"name":"ecdsaPublicKey","type":"bytes","internalType":"bytes"},{"name":"blsPublicKey","type":"bytes","internalType":"bytes"},{"name":"proofOfPossession","type":"bytes","internalType":"bytes"},{"name":"proofOfAddress","type":"bytes","internalType":"bytes"}]}]}],"stateMutability":"view"},{"type":"function","name":"getRegisteredNode","inputs":[{"name":"nodeAddress","type":"address","internalType":"address"}],"outputs":[{"name":"","type":"bool","internalType":"bool"}],"stateMutability":"view"},{"type":"function","name":"getRoleAdmin","inputs":[{"name":"role","type":"bytes32","internalType":"bytes32"}],"outputs":[{"name":"","type":"bytes32","internalType":"bytes32"}],"stateMutability":"view"},{"type":"function","name":"getWarnedNodeWeight","inputs":[{"name":"nodeAddress","type":"address","internalType":"address"}],"outputs":[{"name":"","type":"uint256","internalType":"uint256"}],"stateMutability":"view"},{"type":"function","name":"grantRole","inputs":[{"name":"role","type":"bytes32","internalType":"bytes32"},{"name":"account","type":"address","internalType":"address"}],"outputs":[],"stateMutability":"nonpayable"},{"type":"function","name":"hasRole","inputs":[{"name":"role","type":"bytes32","internalType":"bytes32"},{"name":"account","type":"address","internalType":"address"}],"outputs":[{"name":"","type":"bool","internalType":"bool"}],"stateMutability":"view"},{"type":"function","name":"initialize","inputs":[{"name":"upgrader","type":"address","internalType":"address"},{"name":"initialMaxNodes","type":"uint256","internalType":"uint256"},{"name":"initialBurnFeePercentage","type":"uint256","internalType":"uint256"}],"outputs":[],"stateMutability":"nonpayable"},{"type":"function","name":"joinCommittee","inputs":[{"name":"nodeAddress","type":"address","internalType":"address"},{"name":"amountToStake","type":"uint256","internalType":"uint256"},{"name":"publicKeys","type":"tuple","internalType":"struct INodeCommitteeV2.PublicKeys","components":[{"name":"ecdsaPublicKey","type":"bytes","internalType":"bytes"},{"name":"blsPublicKey","type":"bytes","internalType":"bytes"},{"name":"proofOfPossession","type":"bytes","internalType":"bytes"},{"name":"proofOfAddress","type":"bytes","internalType":"bytes"}]}],"outputs":[],"stateMutability":"nonpayable"},{"type":"function","name":"leaveCommittee","inputs":[{"name":"nodeAddress","type":"address","internalType":"address"}],"outputs":[],"stateMutability":"nonpayable"},{"type":"function","name":"maxNodes","inputs":[],"outputs":[{"name":"","type":"uint256","internalType":"uint256"}],"stateMutability":"view"},{"type":"function","name":"moveToNextEpoch","inputs":[{"name":"rewardsPayedToContract","type":"uint256","internalType":"uint256"}],"outputs":[],"stateMutability":"nonpayable"},{"type":"function","name":"nodeCommitteeStaking","inputs":[],"outputs":[{"name":"","type":"address","internalType":"address"}],"stateMutability":"view"},{"type":"function","name":"proxiableUUID","inputs":[],"outputs":[{"name":"","type":"bytes32","internalType":"bytes32"}],"stateMutability":"view"},{"type":"function","name":"renounceRole","inputs":[{"name":"role","type":"bytes32","internalType":"bytes32"},{"name":"callerConfirmation","type":"address","internalType":"address"}],"outputs":[],"stateMutability":"nonpayable"},{"type":"function","name":"revokeRole","inputs":[{"name":"role","type":"bytes32","internalType":"bytes32"},{"name":"account","type":"address","internalType":"address"}],"outputs":[],"stateMutability":"nonpayable"},{"type":"function","name":"setBurnFeePercentage","inputs":[{"name":"newBurnFeePercentage","type":"uint256","internalType":"uint256"}],"outputs":[],"stateMutability":"nonpayable"},{"type":"function","name":"setNodeCommitteeStaking","inputs":[{"name":"newNodeCommitteeStaking","type":"address","internalType":"address"}],"outputs":[],"stateMutability":"nonpayable"},{"type":"function","name":"setNodeGasPriceVote","inputs":[{"name":"gasPriceVote","type":"uint256","internalType":"uint256"}],"outputs":[],"stateMutability":"nonpayable"},{"type":"function","name":"supportsInterface","inputs":[{"name":"interfaceId","type":"bytes4","internalType":"bytes4"}],"outputs":[{"name":"","type":"bool","internalType":"bool"}],"stateMutability":"view"},{"type":"function","name":"updateNodeStake","inputs":[{"name":"nodeAddress","type":"address","internalType":"address"},{"name":"newStake","type":"uint256","internalType":"uint256"}],"outputs":[],"stateMutability":"nonpayable"},{"type":"function","name":"upgradeToAndCall","inputs":[{"name":"newImplementation","type":"address","internalType":"address"},{"name":"data","type":"bytes","internalType":"bytes"}],"outputs":[],"stateMutability":"payable"},{"type":"function","name":"voteInactiveNode","inputs":[{"name":"peer_address","type":"address","internalType":"address"},{"name":"is_active","type":"bool","internalType":"bool"}],"outputs":[],"stateMutability":"nonpayable"},{"type":"event","name":"BurnFeePercentageUpdated","inputs":[{"name":"newPercentage","type":"uint256","indexed":false,"internalType":"uint256"}],"anonymous":false},{"type":"event","name":"EpochFinalized","inputs":[{"name":"numNodes","type":"uint256","indexed":false,"internalType":"uint256"},{"name":"timestamp","type":"uint256","indexed":false,"internalType":"uint256"}],"anonymous":false},{"type":"event","name":"EpochMoved","inputs":[{"name":"rewardsDistributed","type":"uint256","indexed":false,"internalType":"uint256"},{"name":"timestamp","type":"uint256","indexed":false,"internalType":"uint256"}],"anonymous":false},{"type":"event","name":"Initialized","inputs":[{"name":"version","type":"uint64","indexed":false,"internalType":"uint64"}],"anonymous":false},{"type":"event","name":"NodeJoinedCommittee","inputs":[{"name":"nodeAddress","type":"address","indexed":true,"internalType":"address"},{"name":"stakedAmount","type":"uint256","indexed":false,"internalType":"uint256"},{"name":"publicKeys","type":"tuple","indexed":false,"internalType":"struct INodeCommitteeV2.PublicKeys","components":[{"name":"ecdsaPublicKey","type":"bytes","internalType":"bytes"},{"name":"blsPublicKey","type":"bytes","internalType":"bytes"},{"name":"proofOfPossession","type":"bytes","internalType":"bytes"},{"name":"proofOfAddress","type":"bytes","internalType":"bytes"}]},{"name":"timestamp","type":"uint256","indexed":false,"internalType":"uint256"}],"anonymous":false},{"type":"event","name":"NodeLeftCommittee","inputs":[{"name":"nodeAddress","type":"address","indexed":true,"internalType":"address"},{"name":"timestamp","type":"uint256","indexed":false,"internalType":"uint256"}],"anonymous":false},{"type":"event","name":"NodeStakeUpdated","inputs":[{"name":"nodeAddress","type":"address","indexed":true,"internalType":"address"},{"name":"newStake","type":"uint256","indexed":false,"internalType":"uint256"}],"anonymous":false},{"type":"event","name":"NodeVotedInactive","inputs":[{"name":"nodeAddress","type":"address","indexed":true,"internalType":"address"},{"name":"peerAddress","type":"address","indexed":true,"internalType":"address"},{"name":"isActive","type":"bool","indexed":false,"internalType":"bool"}],"anonymous":false},{"type":"event","name":"RoleAdminChanged","inputs":[{"name":"role","type":"bytes32","indexed":true,"internalType":"bytes32"},{"name":"previousAdminRole","type":"bytes32","indexed":true,"internalType":"bytes32"},{"name":"newAdminRole","type":"bytes32","indexed":true,"internalType":"bytes32"}],"anonymous":false},{"type":"event","name":"RoleGranted","inputs":[{"name":"role","type":"bytes32","indexed":true,"internalType":"bytes32"},{"name":"account","type":"address","indexed":true,"internalType":"address"},{"name":"sender","type":"address","indexed":true,"internalType":"address"}],"anonymous":false},{"type":"event","name":"RoleRevoked","inputs":[{"name":"role","type":"bytes32","indexed":true,"internalType":"bytes32"},{"name":"account","type":"address","indexed":true,"internalType":"address"},{"name":"sender","type":"address","indexed":true,"internalType":"address"}],"anonymous":false},{"type":"event","name":"StakingContractUpdated","inputs":[{"name":"newStakingContract","type":"address","indexed":true,"internalType":"address"}],"anonymous":false},{"type":"event","name":"Upgraded","inputs":[{"name":"implementation","type":"address","indexed":true,"internalType":"address"}],"anonymous":false},{"type":"error","name":"AccessControlBadConfirmation","inputs":[]},{"type":"error","name":"AccessControlUnauthorizedAccount","inputs":[{"name":"account","type":"address","internalType":"address"},{"name":"neededRole","type":"bytes32","internalType":"bytes32"}]},{"type":"error","name":"AddressEmptyCode","inputs":[{"name":"target","type":"address","internalType":"address"}]},{"type":"error","name":"ERC1967InvalidImplementation","inputs":[{"name":"implementation","type":"address","internalType":"address"}]},{"type":"error","name":"ERC1967NonPayable","inputs":[]},{"type":"error","name":"FailedCall","inputs":[]},{"type":"error","name":"InvalidInitialization","inputs":[]},{"type":"error","name":"NodeCommittee_CommitteeFull","inputs":[]},{"type":"error","name":"NodeCommittee_EpochAlreadyFinalised","inputs":[]},{"type":"error","name":"NodeCommittee_EpochAlreadySettled","inputs":[]},{"type":"error","name":"NodeCommittee_EpochNotFinalised","inputs":[]},{"type":"error","name":"NodeCommittee_FailedToBurnFees","inputs":[]},{"type":"error","name":"NodeCommittee_FailedToSendFeesToStaking","inputs":[]},{"type":"error","name":"NodeCommittee_InsufficientBalance","inputs":[]},{"type":"error","name":"NodeCommittee_NoNodesToFinalise","inputs":[]},{"type":"error","name":"NodeCommittee_NodeAlreadyRegistered","inputs":[]},{"type":"error","name":"NodeCommittee_NodeNotInCommittee","inputs":[]},{"type":"error","name":"NodeCommittee_NodeNotRegistered","inputs":[]},{"type":"error","name":"NodeCommittee_OnlyNodeCanCallThisFunction","inputs":[]},{"type":"error","name":"NodeCommittee_OnlyStakingContractCanCallThisFunction","inputs":[]},{"type":"error","name":"NodeCommittee_PreviousEpochNotFinalised","inputs":[]},{"type":"error","name":"NodeCommittee_PreviousEpochNotSettled","inputs":[]},{"type":"error","name":"NotInitializing","inputs":[]},{"type":"error","name":"UUPSUnauthorizedCallContext","inputs":[]},{"type":"error","name":"UUPSUnsupportedProxiableUUID","inputs":[{"name":"slot","type":"bytes32","internalType":"bytes32"}]}],"bytecode":{"object":"0x60a06040523073ffffffffffffffffffffffffffffffffffffffff1660809073ffffffffffffffffffffffffffffffffffffffff16815250348015610042575f5ffd5b5061005161005660201b60201c565b6101b6565b5f61006561015460201b60201c565b9050805f0160089054906101000a900460ff16156100af576040517ff92ee8a900000000000000000000000000000000000000000000000000000000815260040160405180910390fd5b67ffffffffffffffff8016815f015f9054906101000a900467ffffffffffffffff1667ffffffffffffffff16146101515767ffffffffffffffff815f015f6101000a81548167ffffffffffffffff021916908367ffffffffffffffff1602179055507fc7f505b2f371ae2175ee4913f4499e1f2633a7b5936321eed1cdaeb6115181d267ffffffffffffffff604051610148919061019d565b60405180910390a15b50565b5f7ff0c57e16840df040f15088dc2f81fe391c3923bec73e23a9662efc9c229c6a00905090565b5f67ffffffffffffffff82169050919050565b6101978161017b565b82525050565b5f6020820190506101b05f83018461018e565b92915050565b6080516167d06101dc5f395f81816144e60152818161453b015261471801526167d05ff3fe6080604052600436106101e6575f3560e01c806391d1485411610101578063b9fad2b311610094578063d547741f11610063578063d547741f146106bd578063ddf0185f146106e5578063f72c0d8b1461070f578063fe29999c14610739576101ed565b8063b9fad2b314610619578063bb80b03e14610641578063c4ceb3391461066b578063d2e8d30614610695576101ed565b8063a217fddf116100d0578063a217fddf14610573578063a39ffd2b1461059d578063ad3cb1cc146105c7578063b932b9ea146105f1576101ed565b806391d14854146104bd578063966ab4ee146104f95780639e27ee7b146105235780639fdbf8d61461054b576101ed565b8063490f2e49116101795780636e898edf116101485780636e898edf1461040957806370845b0c1461043157806373644e071461046d5780637a1ac61e14610495576101ed565b8063490f2e49146103715780634f1ef2861461038757806350b3b0ef146103a357806352d1902d146103df576101ed565b8063248a9ca3116101b5578063248a9ca3146102bb5780632f2ff15d146102f757806332066ff31461031f57806336568abe14610349576101ed565b806301ffc9a7146101f157806319893f0e1461022d5780631d6c97c41461025557806323a5f27b14610291576101ed565b366101ed57005b5f5ffd5b3480156101fc575f5ffd5b5061021760048036038101906102129190615229565b610775565b604051610224919061526e565b60405180910390f35b348015610238575f5ffd5b50610253600480360381019061024e9190615336565b6107ee565b005b348015610260575f5ffd5b5061027b600480360381019061027691906153a2565b610bfa565b60405161028891906153dc565b60405180910390f35b34801561029c575f5ffd5b506102a5610c40565b6040516102b29190615404565b60405180910390f35b3480156102c6575f5ffd5b506102e160048036038101906102dc9190615450565b610c64565b6040516102ee919061548a565b60405180910390f35b348015610302575f5ffd5b5061031d600480360381019061031891906154a3565b610c8e565b005b34801561032a575f5ffd5b50610333610cb0565b60405161034091906156ec565b60405180910390f35b348015610354575f5ffd5b5061036f600480360381019061036a91906154a3565b61103f565b005b34801561037c575f5ffd5b506103856110ba565b005b6103a1600480360381019061039c9190615838565b611c93565b005b3480156103ae575f5ffd5b506103c960048036038101906103c491906153a2565b611cb2565b6040516103d6919061526e565b60405180910390f35b3480156103ea575f5ffd5b506103f3611d48565b604051610400919061548a565b60405180910390f35b348015610414575f5ffd5b5061042f600480360381019061042a9190615892565b611d79565b005b34801561043c575f5ffd5b50610457600480360381019061045291906159d6565b611dc7565b6040516104649190615af2565b60405180910390f35b348015610478575f5ffd5b50610493600480360381019061048e9190615b12565b611de9565b005b3480156104a0575f5ffd5b506104bb60048036038101906104b69190615b50565b6120f0565b005b3480156104c8575f5ffd5b506104e360048036038101906104de91906154a3565b612366565b6040516104f0919061526e565b60405180910390f35b348015610504575f5ffd5b5061050d6123d7565b60405161051a91906156ec565b60405180910390f35b34801561052e575f5ffd5b50610549600480360381019061054491906153a2565b612765565b005b348015610556575f5ffd5b50610571600480360381019061056c9190615892565b6127f6565b005b34801561057e575f5ffd5b50610587613005565b604051610594919061548a565b60405180910390f35b3480156105a8575f5ffd5b506105b161300b565b6040516105be919061548a565b60405180910390f35b3480156105d2575f5ffd5b506105db61302f565b6040516105e89190615bf2565b60405180910390f35b3480156105fc575f5ffd5b5061061760048036038101906106129190615892565b613068565b005b348015610624575f5ffd5b5061063f600480360381019061063a9190615c3c565b613114565b005b34801561064c575f5ffd5b506106556137bb565b60405161066291906156ec565b60405180910390f35b348015610676575f5ffd5b5061067f613b49565b60405161068c91906153dc565b60405180910390f35b3480156106a0575f5ffd5b506106bb60048036038101906106b691906153a2565b613b4f565b005b3480156106c8575f5ffd5b506106e360048036038101906106de91906154a3565b613be1565b005b3480156106f0575f5ffd5b506106f9613c03565b60405161070691906153dc565b60405180910390f35b34801561071a575f5ffd5b50610723613c09565b604051610730919061548a565b60405180910390f35b348015610744575f5ffd5b5061075f600480360381019061075a9190615892565b613c2d565b60405161076c91906153dc565b60405180910390f35b5f7f7965db0b000000000000000000000000000000000000000000000000000000007bffffffffffffffffffffffffffffffffffffffffffffffffffffffff1916827bffffffffffffffffffffffffffffffffffffffffffffffffffffffff191614806107e757506107e682613ef1565b5b9050919050565b5f5f9054906101000a900473ffffffffffffffffffffffffffffffffffffffff1673ffffffffffffffffffffffffffffffffffffffff163373ffffffffffffffffffffffffffffffffffffffff1614610873576040517f6dba6e3600000000000000000000000000000000000000000000000000000000815260040160405180910390fd5b5f60045f60028081111561088a57610889615c7a565b5b600281111561089c5761089b615c7a565b5b81526020019081526020015f209050806001015f9054906101000a900460ff16156108f3576040517f69ad8e2300000000000000000000000000000000000000000000000000000000815260040160405180910390fd5b5f73ffffffffffffffffffffffffffffffffffffffff1660035f8673ffffffffffffffffffffffffffffffffffffffff1673ffffffffffffffffffffffffffffffffffffffff1681526020019081526020015f205f015f9054906101000a900473ffffffffffffffffffffffffffffffffffffffff1673ffffffffffffffffffffffffffffffffffffffff16146109b6576040517fb7e28bbd00000000000000000000000000000000000000000000000000000000815260040160405180910390fd5b600254600580549050106109f6576040517fc80e436000000000000000000000000000000000000000000000000000000000815260040160405180910390fd5b6109fe61500a565b8381602001818152505082610a1290615d8c565b816040018190525084815f019073ffffffffffffffffffffffffffffffffffffffff16908173ffffffffffffffffffffffffffffffffffffffff1681525050600585908060018154018082558091505060019003905f5260205f20015f9091909190916101000a81548173ffffffffffffffffffffffffffffffffffffffff021916908373ffffffffffffffffffffffffffffffffffffffff1602179055508060035f8773ffffffffffffffffffffffffffffffffffffffff1673ffffffffffffffffffffffffffffffffffffffff1681526020019081526020015f205f820151815f015f6101000a81548173ffffffffffffffffffffffffffffffffffffffff021916908373ffffffffffffffffffffffffffffffffffffffff160217905550602082015181600101556040820151816002015f820151815f019081610b599190615f9b565b506020820151816001019081610b6f9190615f9b565b506040820151816002019081610b859190615f9b565b506060820151816003019081610b9b9190615f9b565b5050509050508473ffffffffffffffffffffffffffffffffffffffff167f4307e244159ee99b8397b0cb827b07ebaebb459160b2e15e2424c2d593177b15858542604051610beb939291906161a1565b60405180910390a25050505050565b5f60065f8373ffffffffffffffffffffffffffffffffffffffff1673ffffffffffffffffffffffffffffffffffffffff1681526020019081526020015f20549050919050565b5f5f9054906101000a900473ffffffffffffffffffffffffffffffffffffffff1681565b5f5f610c6e613f5a565b9050805f015f8481526020019081526020015f2060010154915050919050565b610c9782610c64565b610ca081613f81565b610caa8383613f95565b50505050565b60605f60045f60016002811115610cca57610cc9615c7a565b5b6002811115610cdc57610cdb615c7a565b5b81526020019081526020015f209050806001015f9054906101000a900460ff16610d32576040517fb918251100000000000000000000000000000000000000000000000000000000815260040160405180910390fd5b805f01805480602002602001604051908101604052809291908181526020015f905b82821015611035578382905f5260205f2090600602016040518060600160405290815f82015f9054906101000a900473ffffffffffffffffffffffffffffffffffffffff1673ffffffffffffffffffffffffffffffffffffffff1673ffffffffffffffffffffffffffffffffffffffff16815260200160018201548152602001600282016040518060800160405290815f82018054610df290615dcb565b80601f0160208091040260200160405190810160405280929190818152602001828054610e1e90615dcb565b8015610e695780601f10610e4057610100808354040283529160200191610e69565b820191905f5260205f20905b815481529060010190602001808311610e4c57829003601f168201915b50505050508152602001600182018054610e8290615dcb565b80601f0160208091040260200160405190810160405280929190818152602001828054610eae90615dcb565b8015610ef95780601f10610ed057610100808354040283529160200191610ef9565b820191905f5260205f20905b815481529060010190602001808311610edc57829003601f168201915b50505050508152602001600282018054610f1290615dcb565b80601f0160208091040260200160405190810160405280929190818152602001828054610f3e90615dcb565b8015610f895780601f10610f6057610100808354040283529160200191610f89565b820191905f5260205f20905b815481529060010190602001808311610f6c57829003601f168201915b50505050508152602001600382018054610fa290615dcb565b80601f0160208091040260200160405190810160405280929190818152602001828054610fce90615dcb565b80156110195780601f10610ff057610100808354040283529160200191611019565b820191905f5260205f20905b815481529060010190602001808311610ffc57829003601f168201915b5050505050815250508152505081526020019060010190610d54565b5050505091505090565b61104761408d565b73ffffffffffffffffffffffffffffffffffffffff168173ffffffffffffffffffffffffffffffffffffffff16146110ab576040517f6697b23200000000000000000000000000000000000000000000000000000000815260040160405180910390fd5b6110b58282614094565b505050565b3073ffffffffffffffffffffffffffffffffffffffff163373ffffffffffffffffffffffffffffffffffffffff161461111f576040517fddc50de900000000000000000000000000000000000000000000000000000000815260040160405180910390fd5b5f60045f60028081111561113657611135615c7a565b5b600281111561114857611147615c7a565b5b81526020019081526020015f2090505f60045f6001600281111561116f5761116e615c7a565b5b600281111561118157611180615c7a565b5b81526020019081526020015f209050806001015f9054906101000a900460ff166111d7576040517f3d793e5e00000000000000000000000000000000000000000000000000000000815260040160405180910390fd5b5f60058054905090505f60088054905090505f5f90505f5f90505b83811015611295575f6005828154811061120f5761120e6161dd565b5b905f5260205f20015f9054906101000a900473ffffffffffffffffffffffffffffffffffffffff16905060035f8273ffffffffffffffffffffffffffffffffffffffff1673ffffffffffffffffffffffffffffffffffffffff1681526020019081526020015f2060010154836112859190616237565b92505080806001019150506111f2565b505f60036002836112a6919061626a565b6112b091906162d8565b90505f5f90505b83811015611390578160065f600884815481106112d7576112d66161dd565b5b905f5260205f20015f9054906101000a900473ffffffffffffffffffffffffffffffffffffffff1673ffffffffffffffffffffffffffffffffffffffff1673ffffffffffffffffffffffffffffffffffffffff1681526020019081526020015f2054106113835761138260088281548110611355576113546161dd565b5b905f5260205f20015f9054906101000a900473ffffffffffffffffffffffffffffffffffffffff1661418c565b5b80806001019150506112b7565b505f60058054905090505f5f90505b81811015611927575f600582815481106113bc576113bb6161dd565b5b905f5260205f20015f9054906101000a900473ffffffffffffffffffffffffffffffffffffffff1690505f73ffffffffffffffffffffffffffffffffffffffff1660035f8373ffffffffffffffffffffffffffffffffffffffff1673ffffffffffffffffffffffffffffffffffffffff1681526020019081526020015f205f015f9054906101000a900473ffffffffffffffffffffffffffffffffffffffff1673ffffffffffffffffffffffffffffffffffffffff1614611919575f5f90505f5f90505b8a5f0180549050811015611519578273ffffffffffffffffffffffffffffffffffffffff168b5f0182815481106114ba576114b96161dd565b5b905f5260205f2090600602015f015f9054906101000a900473ffffffffffffffffffffffffffffffffffffffff1673ffffffffffffffffffffffffffffffffffffffff160361150c5760019150611519565b8080600101915050611480565b50806119175761152761500a565b82815f019073ffffffffffffffffffffffffffffffffffffffff16908173ffffffffffffffffffffffffffffffffffffffff168152505060035f8473ffffffffffffffffffffffffffffffffffffffff1673ffffffffffffffffffffffffffffffffffffffff1681526020019081526020015f206001015481602001818152505060035f8473ffffffffffffffffffffffffffffffffffffffff1673ffffffffffffffffffffffffffffffffffffffff1681526020019081526020015f206002016040518060800160405290815f8201805461160290615dcb565b80601f016020809104026020016040519081016040528092919081815260200182805461162e90615dcb565b80156116795780601f1061165057610100808354040283529160200191611679565b820191905f5260205f20905b81548152906001019060200180831161165c57829003601f168201915b5050505050815260200160018201805461169290615dcb565b80601f01602080910402602001604051908101604052809291908181526020018280546116be90615dcb565b80156117095780601f106116e057610100808354040283529160200191611709565b820191905f5260205f20905b8154815290600101906020018083116116ec57829003601f168201915b5050505050815260200160028201805461172290615dcb565b80601f016020809104026020016040519081016040528092919081815260200182805461174e90615dcb565b80156117995780601f1061177057610100808354040283529160200191611799565b820191905f5260205f20905b81548152906001019060200180831161177c57829003601f168201915b505050505081526020016003820180546117b290615dcb565b80601f01602080910402602001604051908101604052809291908181526020018280546117de90615dcb565b80156118295780601f1061180057610100808354040283529160200191611829565b820191905f5260205f20905b81548152906001019060200180831161180c57829003601f168201915b50505050508152505081604001819052508a5f0181908060018154018082558091505060019003905f5260205f2090600602015f909190919091505f820151815f015f6101000a81548173ffffffffffffffffffffffffffffffffffffffff021916908373ffffffffffffffffffffffffffffffffffffffff160217905550602082015181600101556040820151816002015f820151815f0190816118ce9190615f9b565b5060208201518160010190816118e49190615f9b565b5060408201518160020190816118fa9190615f9b565b5060608201518160030190816119109190615f9b565b5050505050505b505b50808060010191505061139f565b505f875f018054905003611967576040517f5d17bb0800000000000000000000000000000000000000000000000000000000815260040160405180910390fd5b5f5f90505b848110156119fc5760065f6008838154811061198b5761198a6161dd565b5b905f5260205f20015f9054906101000a900473ffffffffffffffffffffffffffffffffffffffff1673ffffffffffffffffffffffffffffffffffffffff1673ffffffffffffffffffffffffffffffffffffffff1681526020019081526020015f205f9055808060010191505061196c565b505f5f90505b84811015611c21575f60088281548110611a1f57611a1e6161dd565b5b905f5260205f20015f9054906101000a900473ffffffffffffffffffffffffffffffffffffffff1690505f5f90505b83811015611b2d575f60075f60058481548110611a6e57611a6d6161dd565b5b905f5260205f20015f9054906101000a900473ffffffffffffffffffffffffffffffffffffffff1673ffffffffffffffffffffffffffffffffffffffff1673ffffffffffffffffffffffffffffffffffffffff1681526020019081526020015f205f8473ffffffffffffffffffffffffffffffffffffffff1673ffffffffffffffffffffffffffffffffffffffff1681526020019081526020015f205f6101000a81548160ff0219169083151502179055508080600101915050611a4e565b505f5f90505b83811015611c12575f60075f8473ffffffffffffffffffffffffffffffffffffffff1673ffffffffffffffffffffffffffffffffffffffff1681526020019081526020015f205f60058481548110611b8e57611b8d6161dd565b5b905f5260205f20015f9054906101000a900473ffffffffffffffffffffffffffffffffffffffff1673ffffffffffffffffffffffffffffffffffffffff1673ffffffffffffffffffffffffffffffffffffffff1681526020019081526020015f205f6101000a81548160ff0219169083151502179055508080600101915050611b33565b50508080600101915050611a02565b5060085f611c2f9190615045565b6001876001015f6101000a81548160ff0219169083151502179055507f6debf9c0b8bd7ecda40db89a2641f61251d80a576b5c5e5f06de7f1c2a65850a875f018054905042604051611c82929190616308565b60405180910390a150505050505050565b611c9b6144e4565b611ca4826145ca565b611cae82826145f8565b5050565b5f5f73ffffffffffffffffffffffffffffffffffffffff1660035f8473ffffffffffffffffffffffffffffffffffffffff1673ffffffffffffffffffffffffffffffffffffffff1681526020019081526020015f205f015f9054906101000a900473ffffffffffffffffffffffffffffffffffffffff1673ffffffffffffffffffffffffffffffffffffffff1614159050919050565b5f611d51614716565b7f360894a13ba1a3210667c828492db98dca3e2076cc3735a920a3ca505d382bbc5f1b905090565b5f5f1b611d8581613f81565b816001819055507f33818983254c737c2c55e9cd34a572a59566836d1596d12ffa0f760c0b81466e82604051611dbb91906153dc565b60405180910390a15050565b6060611de1825f60018551611ddc919061632f565b61479d565b819050919050565b5f5f9054906101000a900473ffffffffffffffffffffffffffffffffffffffff1673ffffffffffffffffffffffffffffffffffffffff163373ffffffffffffffffffffffffffffffffffffffff1614611e6e576040517f6dba6e3600000000000000000000000000000000000000000000000000000000815260040160405180910390fd5b5f73ffffffffffffffffffffffffffffffffffffffff1660035f8473ffffffffffffffffffffffffffffffffffffffff1673ffffffffffffffffffffffffffffffffffffffff1681526020019081526020015f205f015f9054906101000a900473ffffffffffffffffffffffffffffffffffffffff1673ffffffffffffffffffffffffffffffffffffffff1603611f31576040517f54f8e21000000000000000000000000000000000000000000000000000000000815260040160405180910390fd5b5f5f90505b60058054905081101561209d578273ffffffffffffffffffffffffffffffffffffffff1660035f60058481548110611f7157611f706161dd565b5b905f5260205f20015f9054906101000a900473ffffffffffffffffffffffffffffffffffffffff1673ffffffffffffffffffffffffffffffffffffffff1673ffffffffffffffffffffffffffffffffffffffff1681526020019081526020015f205f015f9054906101000a900473ffffffffffffffffffffffffffffffffffffffff1673ffffffffffffffffffffffffffffffffffffffff1603612090578160035f60058481548110612027576120266161dd565b5b905f5260205f20015f9054906101000a900473ffffffffffffffffffffffffffffffffffffffff1673ffffffffffffffffffffffffffffffffffffffff1673ffffffffffffffffffffffffffffffffffffffff1681526020019081526020015f20600101819055505b8080600101915050611f36565b508173ffffffffffffffffffffffffffffffffffffffff167fcf939c6aa5e54a02f6433632298ef92d8600b2e56030790abb22fb9b3ab25d7e826040516120e491906153dc565b60405180910390a25050565b5f6120f961493f565b90505f815f0160089054906101000a900460ff161590505f825f015f9054906101000a900467ffffffffffffffff1690505f5f8267ffffffffffffffff161480156121415750825b90505f60018367ffffffffffffffff1614801561217457505f3073ffffffffffffffffffffffffffffffffffffffff163b145b905081158015612182575080155b156121b9576040517ff92ee8a900000000000000000000000000000000000000000000000000000000815260040160405180910390fd5b6001855f015f6101000a81548167ffffffffffffffff021916908367ffffffffffffffff1602179055508315612206576001855f0160086101000a81548160ff0219169083151502179055505b61220e614966565b61221a5f5f1b89613f95565b506122275f5f1b33613f95565b506122527f189ab7a9244df0848122154315af71fe140f3db0fe014031783b0946b8c9d2e389613f95565b508560018190555086600281905550600160045f5f600281111561227957612278615c7a565b5b600281111561228b5761228a615c7a565b5b81526020019081526020015f206001015f6101000a81548160ff021916908315150217905550600160045f600160028111156122ca576122c9615c7a565b5b60028111156122dc576122db615c7a565b5b81526020019081526020015f206001015f6101000a81548160ff021916908315150217905550831561235c575f855f0160086101000a81548160ff0219169083151502179055507fc7f505b2f371ae2175ee4913f4499e1f2633a7b5936321eed1cdaeb6115181d2600160405161235391906163ae565b60405180910390a15b5050505050505050565b5f5f612370613f5a565b9050805f015f8581526020019081526020015f205f015f8473ffffffffffffffffffffffffffffffffffffffff1673ffffffffffffffffffffffffffffffffffffffff1681526020019081526020015f205f9054906101000a900460ff1691505092915050565b60605f60045f5f60028111156123f0576123ef615c7a565b5b600281111561240257612401615c7a565b5b81526020019081526020015f209050806001015f9054906101000a900460ff16612458576040517fb918251100000000000000000000000000000000000000000000000000000000815260040160405180910390fd5b805f01805480602002602001604051908101604052809291908181526020015f905b8282101561275b578382905f5260205f2090600602016040518060600160405290815f82015f9054906101000a900473ffffffffffffffffffffffffffffffffffffffff1673ffffffffffffffffffffffffffffffffffffffff1673ffffffffffffffffffffffffffffffffffffffff16815260200160018201548152602001600282016040518060800160405290815f8201805461251890615dcb565b80601f016020809104026020016040519081016040528092919081815260200182805461254490615dcb565b801561258f5780601f106125665761010080835404028352916020019161258f565b820191905f5260205f20905b81548152906001019060200180831161257257829003601f168201915b505050505081526020016001820180546125a890615dcb565b80601f01602080910402602001604051908101604052809291908181526020018280546125d490615dcb565b801561261f5780601f106125f65761010080835404028352916020019161261f565b820191905f5260205f20905b81548152906001019060200180831161260257829003601f168201915b5050505050815260200160028201805461263890615dcb565b80601f016020809104026020016040519081016040528092919081815260200182805461266490615dcb565b80156126af5780601f10612686576101008083540402835291602001916126af565b820191905f5260205f20905b81548152906001019060200180831161269257829003601f168201915b505050505081526020016003820180546126c890615dcb565b80601f01602080910402602001604051908101604052809291908181526020018280546126f490615dcb565b801561273f5780601f106127165761010080835404028352916020019161273f565b820191905f5260205f20905b81548152906001019060200180831161272257829003601f168201915b505050505081525050815250508152602001906001019061247a565b5050505091505090565b5f5f9054906101000a900473ffffffffffffffffffffffffffffffffffffffff1673ffffffffffffffffffffffffffffffffffffffff163373ffffffffffffffffffffffffffffffffffffffff16146127ea576040517f6dba6e3600000000000000000000000000000000000000000000000000000000815260040160405180910390fd5b6127f38161418c565b50565b3073ffffffffffffffffffffffffffffffffffffffff163373ffffffffffffffffffffffffffffffffffffffff161461285b576040517fddc50de900000000000000000000000000000000000000000000000000000000815260040160405180910390fd5b5f61286582614970565b905060045f5f600281111561287d5761287c615c7a565b5b600281111561288f5761288e615c7a565b5b81526020019081526020015f205f015f6128a99190615063565b60045f600160028111156128c0576128bf615c7a565b5b60028111156128d2576128d1615c7a565b5b81526020019081526020015f206001015f9054906101000a900460ff1660045f5f600281111561290557612904615c7a565b5b600281111561291757612916615c7a565b5b81526020019081526020015f206001015f6101000a81548160ff02191690831515021790555060045f6001600281111561295457612953615c7a565b5b600281111561296657612965615c7a565b5b81526020019081526020015f2060010160019054906101000a900460ff1660045f5f600281111561299a57612999615c7a565b5b60028111156129ac576129ab615c7a565b5b81526020019081526020015f2060010160016101000a81548160ff0219169083151502179055505f5f90505b60045f600160028111156129ef576129ee615c7a565b5b6002811115612a0157612a00615c7a565b5b81526020019081526020015f205f0180549050811015612ba65760045f5f6002811115612a3157612a30615c7a565b5b6002811115612a4357612a42615c7a565b5b81526020019081526020015f205f0160045f60016002811115612a6957612a68615c7a565b5b6002811115612a7b57612a7a615c7a565b5b81526020019081526020015f205f018281548110612a9c57612a9b6161dd565b5b905f5260205f209060060201908060018154018082558091505060019003905f5260205f2090600602015f909190919091505f82015f9054906101000a900473ffffffffffffffffffffffffffffffffffffffff16815f015f6101000a81548173ffffffffffffffffffffffffffffffffffffffff021916908373ffffffffffffffffffffffffffffffffffffffff1602179055506001820154816001015560028201816002015f8201815f019081612b5591906163dc565b5060018201816001019081612b6a91906163dc565b5060028201816002019081612b7f91906163dc565b5060038201816003019081612b9491906163dc565b505050505080806001019150506129d8565b5060045f60016002811115612bbe57612bbd615c7a565b5b6002811115612bd057612bcf615c7a565b5b81526020019081526020015f205f015f612bea9190615063565b60045f600280811115612c0057612bff615c7a565b5b6002811115612c1257612c11615c7a565b5b81526020019081526020015f206001015f9054906101000a900460ff1660045f60016002811115612c4657612c45615c7a565b5b6002811115612c5857612c57615c7a565b5b81526020019081526020015f206001015f6101000a81548160ff02191690831515021790555060045f600280811115612c9457612c93615c7a565b5b6002811115612ca657612ca5615c7a565b5b81526020019081526020015f2060010160019054906101000a900460ff1660045f60016002811115612cdb57612cda615c7a565b5b6002811115612ced57612cec615c7a565b5b81526020019081526020015f2060010160016101000a81548160ff0219169083151502179055505f5f90505b60045f600280811115612d2f57612d2e615c7a565b5b6002811115612d4157612d40615c7a565b5b81526020019081526020015f205f0180549050811015612ee65760045f60016002811115612d7257612d71615c7a565b5b6002811115612d8457612d83615c7a565b5b81526020019081526020015f205f0160045f600280811115612da957612da8615c7a565b5b6002811115612dbb57612dba615c7a565b5b81526020019081526020015f205f018281548110612ddc57612ddb6161dd565b5b905f5260205f209060060201908060018154018082558091505060019003905f5260205f2090600602015f909190919091505f82015f9054906101000a900473ffffffffffffffffffffffffffffffffffffffff16815f015f6101000a81548173ffffffffffffffffffffffffffffffffffffffff021916908373ffffffffffffffffffffffffffffffffffffffff1602179055506001820154816001015560028201816002015f8201815f019081612e9591906163dc565b5060018201816001019081612eaa91906163dc565b5060028201816002019081612ebf91906163dc565b5060038201816003019081612ed491906163dc565b50505050508080600101915050612d19565b5060045f600280811115612efd57612efc615c7a565b5b6002811115612f0f57612f0e615c7a565b5b81526020019081526020015f205f015f612f299190615063565b5f60045f600280811115612f4057612f3f615c7a565b5b6002811115612f5257612f51615c7a565b5b81526020019081526020015f2060010160016101000a81548160ff0219169083151502179055505f60045f600280811115612f9057612f8f615c7a565b5b6002811115612fa257612fa1615c7a565b5b81526020019081526020015f206001015f6101000a81548160ff0219169083151502179055507f2afb4df8a72287c619edfbbe7cb22d0fe5fa86bcaa5e9d249c264c4d9b97cd498142604051612ff9929190616308565b60405180910390a15050565b5f5f1b81565b7f59fbb1b33a3f1bf3259723a02671a6e98b00871a11d46db3bec868980c1209db81565b6040518060400160405280600581526020017f352e302e3000000000000000000000000000000000000000000000000000000081525081565b613070615084565b81815f01818152505042816020019067ffffffffffffffff16908167ffffffffffffffff16815250508060095f3373ffffffffffffffffffffffffffffffffffffffff1673ffffffffffffffffffffffffffffffffffffffff1681526020019081526020015f205f820151815f01556020820151816001015f6101000a81548167ffffffffffffffff021916908367ffffffffffffffff1602179055509050505050565b5f73ffffffffffffffffffffffffffffffffffffffff1660035f3373ffffffffffffffffffffffffffffffffffffffff1673ffffffffffffffffffffffffffffffffffffffff1681526020019081526020015f205f015f9054906101000a900473ffffffffffffffffffffffffffffffffffffffff1673ffffffffffffffffffffffffffffffffffffffff16036131d7576040517f54f8e21000000000000000000000000000000000000000000000000000000000815260040160405180910390fd5b5f73ffffffffffffffffffffffffffffffffffffffff1660035f8473ffffffffffffffffffffffffffffffffffffffff1673ffffffffffffffffffffffffffffffffffffffff1681526020019081526020015f205f015f9054906101000a900473ffffffffffffffffffffffffffffffffffffffff1673ffffffffffffffffffffffffffffffffffffffff160361329a576040517f6e6aef8100000000000000000000000000000000000000000000000000000000815260040160405180910390fd5b5f60035f3373ffffffffffffffffffffffffffffffffffffffff1673ffffffffffffffffffffffffffffffffffffffff1681526020019081526020015f20600101549050816135575760075f3373ffffffffffffffffffffffffffffffffffffffff1673ffffffffffffffffffffffffffffffffffffffff1681526020019081526020015f205f8473ffffffffffffffffffffffffffffffffffffffff1673ffffffffffffffffffffffffffffffffffffffff1681526020019081526020015f205f9054906101000a900460ff16613552578060065f8573ffffffffffffffffffffffffffffffffffffffff1673ffffffffffffffffffffffffffffffffffffffff1681526020019081526020015f205f8282546133b89190616237565b92505081905550600160075f3373ffffffffffffffffffffffffffffffffffffffff1673ffffffffffffffffffffffffffffffffffffffff1681526020019081526020015f205f8573ffffffffffffffffffffffffffffffffffffffff1673ffffffffffffffffffffffffffffffffffffffff1681526020019081526020015f205f6101000a81548160ff0219169083151502179055505f5f90505f5f90505b6008805490508110156134e9578473ffffffffffffffffffffffffffffffffffffffff16600882815481106134905761348f6161dd565b5b905f5260205f20015f9054906101000a900473ffffffffffffffffffffffffffffffffffffffff1673ffffffffffffffffffffffffffffffffffffffff16036134dc57600191506134e9565b8080600101915050613458565b508061355057600884908060018154018082558091505060019003905f5260205f20015f9091909190916101000a81548173ffffffffffffffffffffffffffffffffffffffff021916908373ffffffffffffffffffffffffffffffffffffffff1602179055505b505b613751565b60075f3373ffffffffffffffffffffffffffffffffffffffff1673ffffffffffffffffffffffffffffffffffffffff1681526020019081526020015f205f8473ffffffffffffffffffffffffffffffffffffffff1673ffffffffffffffffffffffffffffffffffffffff1681526020019081526020015f205f9054906101000a900460ff1615613750575f60075f3373ffffffffffffffffffffffffffffffffffffffff1673ffffffffffffffffffffffffffffffffffffffff1681526020019081526020015f205f8573ffffffffffffffffffffffffffffffffffffffff1673ffffffffffffffffffffffffffffffffffffffff1681526020019081526020015f205f6101000a81548160ff0219169083151502179055508060065f8573ffffffffffffffffffffffffffffffffffffffff1673ffffffffffffffffffffffffffffffffffffffff1681526020019081526020015f20541061370c578060065f8573ffffffffffffffffffffffffffffffffffffffff1673ffffffffffffffffffffffffffffffffffffffff1681526020019081526020015f205f828254613700919061632f565b9250508190555061374f565b5f60065f8573ffffffffffffffffffffffffffffffffffffffff1673ffffffffffffffffffffffffffffffffffffffff1681526020019081526020015f20819055505b5b5b8273ffffffffffffffffffffffffffffffffffffffff163373ffffffffffffffffffffffffffffffffffffffff167f15e5371a744a5a5844a0a90b8b74ed98b9ac33dc80f9894c96c12093c6b96305846040516137ae919061526e565b60405180910390a3505050565b60605f60045f6002808111156137d4576137d3615c7a565b5b60028111156137e6576137e5615c7a565b5b81526020019081526020015f209050806001015f9054906101000a900460ff1661383c576040517fb918251100000000000000000000000000000000000000000000000000000000815260040160405180910390fd5b805f01805480602002602001604051908101604052809291908181526020015f905b82821015613b3f578382905f5260205f2090600602016040518060600160405290815f82015f9054906101000a900473ffffffffffffffffffffffffffffffffffffffff1673ffffffffffffffffffffffffffffffffffffffff1673ffffffffffffffffffffffffffffffffffffffff16815260200160018201548152602001600282016040518060800160405290815f820180546138fc90615dcb565b80601f016020809104026020016040519081016040528092919081815260200182805461392890615dcb565b80156139735780601f1061394a57610100808354040283529160200191613973565b820191905f5260205f20905b81548152906001019060200180831161395657829003601f168201915b5050505050815260200160018201805461398c90615dcb565b80601f01602080910402602001604051908101604052809291908181526020018280546139b890615dcb565b8015613a035780601f106139da57610100808354040283529160200191613a03565b820191905f5260205f20905b8154815290600101906020018083116139e657829003601f168201915b50505050508152602001600282018054613a1c90615dcb565b80601f0160208091040260200160405190810160405280929190818152602001828054613a4890615dcb565b8015613a935780601f10613a6a57610100808354040283529160200191613a93565b820191905f5260205f20905b815481529060010190602001808311613a7657829003601f168201915b50505050508152602001600382018054613aac90615dcb565b80601f0160208091040260200160405190810160405280929190818152602001828054613ad890615dcb565b8015613b235780601f10613afa57610100808354040283529160200191613b23565b820191905f5260205f20905b815481529060010190602001808311613b0657829003601f168201915b505050505081525050815250508152602001906001019061385e565b5050505091505090565b60015481565b5f5f1b613b5b81613f81565b815f5f6101000a81548173ffffffffffffffffffffffffffffffffffffffff021916908373ffffffffffffffffffffffffffffffffffffffff1602179055508173ffffffffffffffffffffffffffffffffffffffff167f6397f5b135542bb3f477cb346cfab5abdec1251d08dc8f8d4efb4ffe122ea0bf60405160405180910390a25050565b613bea82610c64565b613bf381613f81565b613bfd8383614094565b50505050565b60025481565b7f189ab7a9244df0848122154315af71fe140f3db0fe014031783b0946b8c9d2e381565b5f5f613c376123d7565b90505f815167ffffffffffffffff811115613c5557613c54615714565b5b604051908082528060200260200182016040528015613c8e57816020015b613c7b6150a6565b815260200190600190039081613c735790505b5090505f5f90505f5f90505b8351811015613e43575f60095f868481518110613cba57613cb96161dd565b5b60200260200101515f015173ffffffffffffffffffffffffffffffffffffffff1673ffffffffffffffffffffffffffffffffffffffff1681526020019081526020015f206040518060400160405290815f8201548152602001600182015f9054906101000a900467ffffffffffffffff1667ffffffffffffffff1667ffffffffffffffff1681525050905042816020015167ffffffffffffffff161115613d5f575f5ffd5b6104b0816020015167ffffffffffffffff1642613d7c919061632f565b1115613d8c575f815f0181815250505b86815f01511015613da15786815f0181815250505b805f0151848381518110613db857613db76161dd565b5b60200260200101515f018181525050848281518110613dda57613dd96161dd565b5b602002602001015160200151848381518110613df957613df86161dd565b5b60200260200101516020018181525050848281518110613e1c57613e1b6161dd565b5b60200260200101516020015183613e339190616237565b9250508080600101915050613c9a565b50613e4d82611dc7565b91505f600282613e5d91906162d8565b90505f5f90505f5f90505b8451811015613edc57848181518110613e8457613e836161dd565b5b60200260200101516020015182613e9b9190616237565b9150828210613ecf57848181518110613eb757613eb66161dd565b5b60200260200101515f01519650505050505050613eec565b8080600101915050613e68565b505f613ee6575f5ffd5b50505050505b919050565b5f7f01ffc9a7000000000000000000000000000000000000000000000000000000007bffffffffffffffffffffffffffffffffffffffffffffffffffffffff1916827bffffffffffffffffffffffffffffffffffffffffffffffffffffffff1916149050919050565b5f7f02dd7bc7dec4dceedda775e58dd541e08a116c6c53815c0bd028192f7b626800905090565b613f9281613f8d61408d565b614c37565b50565b5f5f613f9f613f5a565b9050613fab8484612366565b614082576001815f015f8681526020019081526020015f205f015f8573ffffffffffffffffffffffffffffffffffffffff1673ffffffffffffffffffffffffffffffffffffffff1681526020019081526020015f205f6101000a81548160ff02191690831515021790555061401e61408d565b73ffffffffffffffffffffffffffffffffffffffff168373ffffffffffffffffffffffffffffffffffffffff16857f2f8788117e7eff1d82e926ec794901d17c78024a50270940304540a733656f0d60405160405180910390a46001915050614087565b5f9150505b92915050565b5f33905090565b5f5f61409e613f5a565b90506140aa8484612366565b15614181575f815f015f8681526020019081526020015f205f015f8573ffffffffffffffffffffffffffffffffffffffff1673ffffffffffffffffffffffffffffffffffffffff1681526020019081526020015f205f6101000a81548160ff02191690831515021790555061411d61408d565b73ffffffffffffffffffffffffffffffffffffffff168373ffffffffffffffffffffffffffffffffffffffff16857ff6391f5c32d9c69d2a47ea670b442974b53935d1edc7fd64eb21e047a839171b60405160405180910390a46001915050614186565b5f9150505b92915050565b5f73ffffffffffffffffffffffffffffffffffffffff1660035f8373ffffffffffffffffffffffffffffffffffffffff1673ffffffffffffffffffffffffffffffffffffffff1681526020019081526020015f205f015f9054906101000a900473ffffffffffffffffffffffffffffffffffffffff1673ffffffffffffffffffffffffffffffffffffffff160361424f576040517f54f8e21000000000000000000000000000000000000000000000000000000000815260040160405180910390fd5b5f5f90505b6005805490508110156143e4578173ffffffffffffffffffffffffffffffffffffffff166005828154811061428c5761428b6161dd565b5b905f5260205f20015f9054906101000a900473ffffffffffffffffffffffffffffffffffffffff1673ffffffffffffffffffffffffffffffffffffffff16036143d75760016005805490506142e1919061632f565b811461438e57600560016005805490506142fb919061632f565b8154811061430c5761430b6161dd565b5b905f5260205f20015f9054906101000a900473ffffffffffffffffffffffffffffffffffffffff1660058281548110614348576143476161dd565b5b905f5260205f20015f6101000a81548173ffffffffffffffffffffffffffffffffffffffff021916908373ffffffffffffffffffffffffffffffffffffffff1602179055505b60058054806143a05761439f6164c1565b5b600190038181905f5260205f20015f6101000a81549073ffffffffffffffffffffffffffffffffffffffff021916905590556143e4565b8080600101915050614254565b5060035f8273ffffffffffffffffffffffffffffffffffffffff1673ffffffffffffffffffffffffffffffffffffffff1681526020019081526020015f205f5f82015f6101000a81549073ffffffffffffffffffffffffffffffffffffffff0219169055600182015f9055600282015f5f82015f61446291906150be565b600182015f61447191906150be565b600282015f61448091906150be565b600382015f61448f91906150be565b505050508073ffffffffffffffffffffffffffffffffffffffff167f48a19e81b9e13e98205fb6f5322e92fa16abc7ae6ea04ae647eed2e94637bc7c426040516144d991906153dc565b60405180910390a250565b7f000000000000000000000000000000000000000000000000000000000000000073ffffffffffffffffffffffffffffffffffffffff163073ffffffffffffffffffffffffffffffffffffffff16148061459157507f000000000000000000000000000000000000000000000000000000000000000073ffffffffffffffffffffffffffffffffffffffff16614578614c88565b73ffffffffffffffffffffffffffffffffffffffff1614155b156145c8576040517fe07c8dba00000000000000000000000000000000000000000000000000000000815260040160405180910390fd5b565b7f189ab7a9244df0848122154315af71fe140f3db0fe014031783b0946b8c9d2e36145f481613f81565b5050565b8173ffffffffffffffffffffffffffffffffffffffff166352d1902d6040518163ffffffff1660e01b8152600401602060405180830381865afa92505050801561466057506040513d601f19601f8201168201806040525081019061465d9190616502565b60015b6146a157816040517f4c9c8ce30000000000000000000000000000000000000000000000000000000081526004016146989190615404565b60405180910390fd5b7f360894a13ba1a3210667c828492db98dca3e2076cc3735a920a3ca505d382bbc5f1b811461470757806040517faa1d49a40000000000000000000000000000000000000000000000000000000081526004016146fe919061548a565b60405180910390fd5b6147118383614cdb565b505050565b7f000000000000000000000000000000000000000000000000000000000000000073ffffffffffffffffffffffffffffffffffffffff163073ffffffffffffffffffffffffffffffffffffffff161461479b576040517fe07c8dba00000000000000000000000000000000000000000000000000000000815260040160405180910390fd5b565b5f8290505f8290508082036147b357505061493a565b5f85600286866147c39190616536565b6147cd9190616576565b866147d891906165de565b815181106147e9576147e86161dd565b5b602002602001015190505b81831361490e575b805f0151868481518110614813576148126161dd565b5b60200260200101515f0151101561483757828061482f9061661f565b9350506147fc565b5b85828151811061484b5761484a6161dd565b5b60200260200101515f0151815f0151101561487357818061486b90616666565b925050614838565b8183136149095785828151811061488d5761488c6161dd565b5b60200260200101518684815181106148a8576148a76161dd565b5b60200260200101518785815181106148c3576148c26161dd565b5b602002602001018885815181106148dd576148dc6161dd565b5b60200260200101829052829052505082806148f79061661f565b935050818061490590616666565b9250505b6147f4565b818512156149225761492186868461479d565b5b838312156149365761493586848661479d565b5b5050505b505050565b5f7ff0c57e16840df040f15088dc2f81fe391c3923bec73e23a9662efc9c229c6a00905090565b61496e614d4d565b565b5f5f60045f5f600281111561498857614987615c7a565b5b600281111561499a57614999615c7a565b5b81526020019081526020015f209050806001015f9054906101000a900460ff166149f0576040517fb918251100000000000000000000000000000000000000000000000000000000815260040160405180910390fd5b8060010160019054906101000a900460ff1615614a39576040517fb5f549d900000000000000000000000000000000000000000000000000000000815260040160405180910390fd5b82471015614a73576040517fb11d5f1e00000000000000000000000000000000000000000000000000000000815260040160405180910390fd5b5f61271061138885614a85919061626a565b614a8f91906162d8565b90505f5f73ffffffffffffffffffffffffffffffffffffffff1682604051614ab6906166da565b5f6040518083038185875af1925050503d805f8114614af0576040519150601f19603f3d011682016040523d82523d5f602084013e614af5565b606091505b5050905080614b30576040517f9c07daec00000000000000000000000000000000000000000000000000000000815260040160405180910390fd5b5f5f9054906101000a900473ffffffffffffffffffffffffffffffffffffffff1673ffffffffffffffffffffffffffffffffffffffff1663a59239528387614b78919061632f565b6040518263ffffffff1660e01b815260040160206040518083038185885af1158015614ba6573d5f5f3e3d5ffd5b50505050506040513d601f19601f82011682018060405250810190614bcb9190616702565b905080614c04576040517f9fd9c1a800000000000000000000000000000000000000000000000000000000815260040160405180910390fd5b60018360010160016101000a81548160ff0219169083151502179055508185614c2d919061632f565b9350505050919050565b614c418282612366565b614c845780826040517fe2517d3f000000000000000000000000000000000000000000000000000000008152600401614c7b92919061672d565b60405180910390fd5b5050565b5f614cb47f360894a13ba1a3210667c828492db98dca3e2076cc3735a920a3ca505d382bbc5f1b614d8d565b5f015f9054906101000a900473ffffffffffffffffffffffffffffffffffffffff16905090565b614ce482614d96565b8173ffffffffffffffffffffffffffffffffffffffff167fbc7cd75a20ee27fd9adebab32041f755214dbc6bffa90cc0225b39da2e5c2d3b60405160405180910390a25f81511115614d4057614d3a8282614e5f565b50614d49565b614d48614edf565b5b5050565b614d55614f1b565b614d8b576040517fd7e6bcf800000000000000000000000000000000000000000000000000000000815260040160405180910390fd5b565b5f819050919050565b5f8173ffffffffffffffffffffffffffffffffffffffff163b03614df157806040517f4c9c8ce3000000000000000000000000000000000000000000000000000000008152600401614de89190615404565b60405180910390fd5b80614e1d7f360894a13ba1a3210667c828492db98dca3e2076cc3735a920a3ca505d382bbc5f1b614d8d565b5f015f6101000a81548173ffffffffffffffffffffffffffffffffffffffff021916908373ffffffffffffffffffffffffffffffffffffffff16021790555050565b60605f5f8473ffffffffffffffffffffffffffffffffffffffff1684604051614e889190616784565b5f60405180830381855af49150503d805f8114614ec0576040519150601f19603f3d011682016040523d82523d5f602084013e614ec5565b606091505b5091509150614ed5858383614f39565b9250505092915050565b5f341115614f19576040517fb398979f00000000000000000000000000000000000000000000000000000000815260040160405180910390fd5b565b5f614f2461493f565b5f0160089054906101000a900460ff16905090565b606082614f4e57614f4982614fc6565b614fbe565b5f8251148015614f7457505f8473ffffffffffffffffffffffffffffffffffffffff163b145b15614fb657836040517f9996b315000000000000000000000000000000000000000000000000000000008152600401614fad9190615404565b60405180910390fd5b819050614fbf565b5b9392505050565b5f81511115614fd85780518082602001fd5b6040517fd6bda27500000000000000000000000000000000000000000000000000000000815260040160405180910390fd5b60405180606001604052805f73ffffffffffffffffffffffffffffffffffffffff1681526020015f815260200161503f6150fb565b81525090565b5080545f8255905f5260205f20908101906150609190615123565b50565b5080545f8255600602905f5260205f2090810190615081919061513e565b50565b60405180604001604052805f81526020015f67ffffffffffffffff1681525090565b60405180604001604052805f81526020015f81525090565b5080546150ca90615dcb565b5f825580601f106150db57506150f8565b601f0160209004905f5260205f20908101906150f79190615123565b5b50565b6040518060800160405280606081526020016060815260200160608152602001606081525090565b5b8082111561513a575f815f905550600101615124565b5090565b5b808211156151bf575f5f82015f6101000a81549073ffffffffffffffffffffffffffffffffffffffff0219169055600182015f9055600282015f5f82015f61518791906150be565b600182015f61519691906150be565b600282015f6151a591906150be565b600382015f6151b491906150be565b50505060060161513f565b5090565b5f604051905090565b5f5ffd5b5f5ffd5b5f7fffffffff0000000000000000000000000000000000000000000000000000000082169050919050565b615208816151d4565b8114615212575f5ffd5b50565b5f81359050615223816151ff565b92915050565b5f6020828403121561523e5761523d6151cc565b5b5f61524b84828501615215565b91505092915050565b5f8115159050919050565b61526881615254565b82525050565b5f6020820190506152815f83018461525f565b92915050565b5f73ffffffffffffffffffffffffffffffffffffffff82169050919050565b5f6152b082615287565b9050919050565b6152c0816152a6565b81146152ca575f5ffd5b50565b5f813590506152db816152b7565b92915050565b5f819050919050565b6152f3816152e1565b81146152fd575f5ffd5b50565b5f8135905061530e816152ea565b92915050565b5f5ffd5b5f6080828403121561532d5761532c615314565b5b81905092915050565b5f5f5f6060848603121561534d5761534c6151cc565b5b5f61535a868287016152cd565b935050602061536b86828701615300565b925050604084013567ffffffffffffffff81111561538c5761538b6151d0565b5b61539886828701615318565b9150509250925092565b5f602082840312156153b7576153b66151cc565b5b5f6153c4848285016152cd565b91505092915050565b6153d6816152e1565b82525050565b5f6020820190506153ef5f8301846153cd565b92915050565b6153fe816152a6565b82525050565b5f6020820190506154175f8301846153f5565b92915050565b5f819050919050565b61542f8161541d565b8114615439575f5ffd5b50565b5f8135905061544a81615426565b92915050565b5f60208284031215615465576154646151cc565b5b5f6154728482850161543c565b91505092915050565b6154848161541d565b82525050565b5f60208201905061549d5f83018461547b565b92915050565b5f5f604083850312156154b9576154b86151cc565b5b5f6154c68582860161543c565b92505060206154d7858286016152cd565b9150509250929050565b5f81519050919050565b5f82825260208201905092915050565b5f819050602082019050919050565b615513816152a6565b82525050565b615522816152e1565b82525050565b5f81519050919050565b5f82825260208201905092915050565b8281835e5f83830152505050565b5f601f19601f8301169050919050565b5f61556a82615528565b6155748185615532565b9350615584818560208601615542565b61558d81615550565b840191505092915050565b5f608083015f8301518482035f8601526155b28282615560565b915050602083015184820360208601526155cc8282615560565b915050604083015184820360408601526155e68282615560565b915050606083015184820360608601526156008282615560565b9150508091505092915050565b5f606083015f8301516156225f86018261550a565b5060208301516156356020860182615519565b506040830151848203604086015261564d8282615598565b9150508091505092915050565b5f615665838361560d565b905092915050565b5f602082019050919050565b5f615683826154e1565b61568d81856154eb565b93508360208202850161569f856154fb565b805f5b858110156156da57848403895281516156bb858261565a565b94506156c68361566d565b925060208a019950506001810190506156a2565b50829750879550505050505092915050565b5f6020820190508181035f8301526157048184615679565b905092915050565b5f5ffd5b5f5ffd5b7f4e487b71000000000000000000000000000000000000000000000000000000005f52604160045260245ffd5b61574a82615550565b810181811067ffffffffffffffff8211171561576957615768615714565b5b80604052505050565b5f61577b6151c3565b90506157878282615741565b919050565b5f67ffffffffffffffff8211156157a6576157a5615714565b5b6157af82615550565b9050602081019050919050565b828183375f83830152505050565b5f6157dc6157d78461578c565b615772565b9050828152602081018484840111156157f8576157f7615710565b5b6158038482856157bc565b509392505050565b5f82601f83011261581f5761581e61570c565b5b813561582f8482602086016157ca565b91505092915050565b5f5f6040838503121561584e5761584d6151cc565b5b5f61585b858286016152cd565b925050602083013567ffffffffffffffff81111561587c5761587b6151d0565b5b6158888582860161580b565b9150509250929050565b5f602082840312156158a7576158a66151cc565b5b5f6158b484828501615300565b91505092915050565b5f67ffffffffffffffff8211156158d7576158d6615714565b5b602082029050602081019050919050565b5f5ffd5b5f5ffd5b5f5ffd5b5f60408284031215615909576159086158ec565b5b6159136040615772565b90505f61592284828501615300565b5f83015250602061593584828501615300565b60208301525092915050565b5f61595361594e846158bd565b615772565b90508083825260208201905060408402830185811115615976576159756158e8565b5b835b8181101561599f578061598b88826158f4565b845260208401935050604081019050615978565b5050509392505050565b5f82601f8301126159bd576159bc61570c565b5b81356159cd848260208601615941565b91505092915050565b5f602082840312156159eb576159ea6151cc565b5b5f82013567ffffffffffffffff811115615a0857615a076151d0565b5b615a14848285016159a9565b91505092915050565b5f81519050919050565b5f82825260208201905092915050565b5f819050602082019050919050565b604082015f820151615a5a5f850182615519565b506020820151615a6d6020850182615519565b50505050565b5f615a7e8383615a46565b60408301905092915050565b5f602082019050919050565b5f615aa082615a1d565b615aaa8185615a27565b9350615ab583615a37565b805f5b83811015615ae5578151615acc8882615a73565b9750615ad783615a8a565b925050600181019050615ab8565b5085935050505092915050565b5f6020820190508181035f830152615b0a8184615a96565b905092915050565b5f5f60408385031215615b2857615b276151cc565b5b5f615b35858286016152cd565b9250506020615b4685828601615300565b9150509250929050565b5f5f5f60608486031215615b6757615b666151cc565b5b5f615b74868287016152cd565b9350506020615b8586828701615300565b9250506040615b9686828701615300565b9150509250925092565b5f81519050919050565b5f82825260208201905092915050565b5f615bc482615ba0565b615bce8185615baa565b9350615bde818560208601615542565b615be781615550565b840191505092915050565b5f6020820190508181035f830152615c0a8184615bba565b905092915050565b615c1b81615254565b8114615c25575f5ffd5b50565b5f81359050615c3681615c12565b92915050565b5f5f60408385031215615c5257615c516151cc565b5b5f615c5f858286016152cd565b9250506020615c7085828601615c28565b9150509250929050565b7f4e487b71000000000000000000000000000000000000000000000000000000005f52602160045260245ffd5b5f60808284031215615cbc57615cbb6158ec565b5b615cc66080615772565b90505f82013567ffffffffffffffff811115615ce557615ce46158f0565b5b615cf18482850161580b565b5f83015250602082013567ffffffffffffffff811115615d1457615d136158f0565b5b615d208482850161580b565b602083015250604082013567ffffffffffffffff811115615d4457615d436158f0565b5b615d508482850161580b565b604083015250606082013567ffffffffffffffff811115615d7457615d736158f0565b5b615d808482850161580b565b60608301525092915050565b5f615d973683615ca7565b9050919050565b7f4e487b71000000000000000000000000000000000000000000000000000000005f52602260045260245ffd5b5f6002820490506001821680615de257607f821691505b602082108103615df557615df4615d9e565b5b50919050565b5f819050815f5260205f209050919050565b5f6020601f8301049050919050565b5f82821b905092915050565b5f60088302615e577fffffffffffffffffffffffffffffffffffffffffffffffffffffffffffffffff82615e1c565b615e618683615e1c565b95508019841693508086168417925050509392505050565b5f819050919050565b5f615e9c615e97615e92846152e1565b615e79565b6152e1565b9050919050565b5f819050919050565b615eb583615e82565b615ec9615ec182615ea3565b848454615e28565b825550505050565b5f5f905090565b615ee0615ed1565b615eeb818484615eac565b505050565b5b81811015615f0e57615f035f82615ed8565b600181019050615ef1565b5050565b601f821115615f5357615f2481615dfb565b615f2d84615e0d565b81016020851015615f3c578190505b615f50615f4885615e0d565b830182615ef0565b50505b505050565b5f82821c905092915050565b5f615f735f1984600802615f58565b1980831691505092915050565b5f615f8b8383615f64565b9150826002028217905092915050565b615fa482615528565b67ffffffffffffffff811115615fbd57615fbc615714565b5b615fc78254615dcb565b615fd2828285615f12565b5f60209050601f831160018114616003575f8415615ff1578287015190505b615ffb8582615f80565b865550616062565b601f19841661601186615dfb565b5f5b8281101561603857848901518255600182019150602085019450602081019050616013565b868310156160555784890151616051601f891682615f64565b8355505b6001600288020188555050505b505050505050565b5f5ffd5b5f5ffd5b5f5ffd5b5f5f8335600160200384360303811261609257616091616072565b5b83810192508235915060208301925067ffffffffffffffff8211156160ba576160b961606a565b5b6001820236038313156160d0576160cf61606e565b5b509250929050565b5f6160e38385615532565b93506160f08385846157bc565b6160f983615550565b840190509392505050565b5f608083016161155f840184616076565b8583035f8701526161278382846160d8565b925050506161386020840184616076565b858303602087015261614b8382846160d8565b9250505061615c6040840184616076565b858303604087015261616f8382846160d8565b925050506161806060840184616076565b85830360608701526161938382846160d8565b925050508091505092915050565b5f6060820190506161b45f8301866153cd565b81810360208301526161c68185616104565b90506161d560408301846153cd565b949350505050565b7f4e487b71000000000000000000000000000000000000000000000000000000005f52603260045260245ffd5b7f4e487b71000000000000000000000000000000000000000000000000000000005f52601160045260245ffd5b5f616241826152e1565b915061624c836152e1565b92508282019050808211156162645761626361620a565b5b92915050565b5f616274826152e1565b915061627f836152e1565b925082820261628d816152e1565b915082820484148315176162a4576162a361620a565b5b5092915050565b7f4e487b71000000000000000000000000000000000000000000000000000000005f52601260045260245ffd5b5f6162e2826152e1565b91506162ed836152e1565b9250826162fd576162fc6162ab565b5b828204905092915050565b5f60408201905061631b5f8301856153cd565b61632860208301846153cd565b9392505050565b5f616339826152e1565b9150616344836152e1565b925082820390508181111561635c5761635b61620a565b5b92915050565b5f819050919050565b5f67ffffffffffffffff82169050919050565b5f61639861639361638e84616362565b615e79565b61636b565b9050919050565b6163a88161637e565b82525050565b5f6020820190506163c15f83018461639f565b92915050565b5f815490506163d581615dcb565b9050919050565b8181036163ea5750506164bf565b6163f3826163c7565b67ffffffffffffffff81111561640c5761640b615714565b5b6164168254615dcb565b616421828285615f12565b5f601f83116001811461644e575f841561643c578287015490505b6164468582615f80565b8655506164b8565b601f19841661645c87615dfb565b965061646786615dfb565b5f5b8281101561648e57848901548255600182019150600185019450602081019050616469565b868310156164ab57848901546164a7601f891682615f64565b8355505b6001600288020188555050505b5050505050505b565b7f4e487b71000000000000000000000000000000000000000000000000000000005f52603160045260245ffd5b5f815190506164fc81615426565b92915050565b5f60208284031215616517576165166151cc565b5b5f616524848285016164ee565b91505092915050565b5f819050919050565b5f6165408261652d565b915061654b8361652d565b925082820390508181125f8412168282135f8512151617156165705761656f61620a565b5b92915050565b5f6165808261652d565b915061658b8361652d565b92508261659b5761659a6162ab565b5b60015f0383147f8000000000000000000000000000000000000000000000000000000000000000831416156165d3576165d261620a565b5b828205905092915050565b5f6165e88261652d565b91506165f38361652d565b92508282019050828112155f8312168382125f8412151617156166195761661861620a565b5b92915050565b5f6166298261652d565b91507f7fffffffffffffffffffffffffffffffffffffffffffffffffffffffffffffff820361665b5761665a61620a565b5b600182019050919050565b5f6166708261652d565b91507f800000000000000000000000000000000000000000000000000000000000000082036166a2576166a161620a565b5b600182039050919050565b5f81905092915050565b50565b5f6166c55f836166ad565b91506166d0826166b7565b5f82019050919050565b5f6166e4826166ba565b9150819050919050565b5f815190506166fc81615c12565b92915050565b5f60208284031215616717576167166151cc565b5b5f616724848285016166ee565b91505092915050565b5f6040820190506167405f8301856153f5565b61674d602083018461547b565b9392505050565b5f61675e82615528565b61676881856166ad565b9350616778818560208601615542565b80840191505092915050565b5f61678f8284616754565b91508190509291505056fea26469706673582212207e99c00dffb4cc450cf7e13ab869dce41d42b8ba1b233bd7ee0963daed89c1c164736f6c634300081c0033","linkReferences":{}},"methodIdentifiers":{"DEFAULT_ADMIN_ROLE()":"a217fddf","NODE_CALLER_ROLE()":"a39ffd2b","UPGRADER_ROLE()":"f72c0d8b","UPGRADE_INTERFACE_VERSION()":"ad3cb1cc","_sortWeightedValues((uint256,uint256)[])":"70845b0c","burnFeePercentage()":"c4ceb339","finaliseEpoch()":"490f2e49","getCurrentEpochCommittee()":"966ab4ee","getCurrentGasPrice(uint256)":"fe29999c","getFinalisedNodes()":"bb80b03e","getNextEpochCommittee()":"32066ff3","getRegisteredNode(address)":"50b3b0ef","getRoleAdmin(bytes32)":"248a9ca3","getWarnedNodeWeight(address)":"1d6c97c4","grantRole(bytes32,address)":"2f2ff15d","hasRole(bytes32,address)":"91d14854","initialize(address,uint256,uint256)":"7a1ac61e","joinCommittee(address,uint256,(bytes,bytes,bytes,bytes))":"19893f0e","leaveCommittee(address)":"9e27ee7b","maxNodes()":"ddf0185f","moveToNextEpoch(uint256)":"9fdbf8d6","nodeCommitteeStaking()":"23a5f27b","proxiableUUID()":"52d1902d","renounceRole(bytes32,address)":"36568abe","revokeRole(bytes32,address)":"d547741f","setBurnFeePercentage(uint256)":"6e898edf","setNodeCommitteeStaking(address)":"d2e8d306","setNodeGasPriceVote(uint256)":"b932b9ea","supportsInterface(bytes4)":"01ffc9a7","updateNodeStake(address,uint256)":"73644e07","upgradeToAndCall(address,bytes)":"4f1ef286","voteInactiveNode(address,bool)":"b9fad2b3"},"id":44}