{"abi":[{"type":"constructor","inputs":[],"stateMutability":"nonpayable"},{"type":"function","name":"allowance","inputs":[{"name":"owner","type":"address","internalType":"address"},{"name":"spender","type":"address","internalType":"address"}],"outputs":[{"name":"","type":"uint256","internalType":"uint256"}],"stateMutability":"view"},{"type":"function","name":"approve","inputs":[{"name":"spender","type":"address","internalType":"address"},{"name":"value","type":"uint256","internalType":"uint256"}],"outputs":[{"name":"","type":"bool","internalType":"bool"}],"stateMutability":"nonpayable"},{"type":"function","name":"balanceOf","inputs":[{"name":"account","type":"address","internalType":"address"}],"outputs":[{"name":"","type":"uint256","internalType":"uint256"}],"stateMutability":"view"},{"type":"function","name":"burn","inputs":[{"name":"amount","type":"uint256","internalType":"uint256"}],"outputs":[],"stateMutability":"nonpayable"},{"type":"function","name":"decimals","inputs":[],"outputs":[{"name":"","type":"uint8","internalType":"uint8"}],"stateMutability":"view"},{"type":"function","name":"initialize","inputs":[{"name":"initialName","type":"string","internalType":"string"},{"name":"initialSymbol","type":"string","internalType":"string"},{"name":"_initialDeployer","type":"address","internalType":"address"}],"outputs":[],"stateMutability":"nonpayable"},{"type":"function","name":"mint","inputs":[{"name":"amount","type":"uint256","internalType":"uint256"}],"outputs":[],"stateMutability":"nonpayable"},{"type":"function","name":"name","inputs":[],"outputs":[{"name":"","type":"string","internalType":"string"}],"stateMutability":"view"},{"type":"function","name":"symbol","inputs":[],"outputs":[{"name":"","type":"string","internalType":"string"}],"stateMutability":"view"},{"type":"function","name":"totalSupply","inputs":[],"outputs":[{"name":"","type":"uint256","internalType":"uint256"}],"stateMutability":"view"},{"type":"function","name":"transfer","inputs":[{"name":"to","type":"address","internalType":"address"},{"name":"value","type":"uint256","internalType":"uint256"}],"outputs":[{"name":"","type":"bool","internalType":"bool"}],"stateMutability":"nonpayable"},{"type":"function","name":"transferFrom","inputs":[{"name":"from","type":"address","internalType":"address"},{"name":"to","type":"address","internalType":"address"},{"name":"value","type":"uint256","internalType":"uint256"}],"outputs":[{"name":"","type":"bool","internalType":"bool"}],"stateMutability":"nonpayable"},{"type":"event","name":"Approval","inputs":[{"name":"owner","type":"address","indexed":true,"internalType":"address"},{"name":"spender","type":"address","indexed":true,"internalType":"address"},{"name":"value","type":"uint256","indexed":false,"internalType":"uint256"}],"anonymous":false},{"type":"event","name":"Initialized","inputs":[{"name":"version","type":"uint64","indexed":false,"internalType":"uint64"}],"anonymous":false},{"type":"event","name":"TokenBurned","inputs":[{"name":"amount","type":"uint256","indexed":false,"internalType":"uint256"},{"name":"time","type":"uint256","indexed":false,"internalType":"uint256"},{"name":"sender","type":"address","indexed":true,"internalType":"address"}],"anonymous":false},{"type":"event","name":"TokenMinted","inputs":[{"name":"amount","type":"uint256","indexed":false,"internalType":"uint256"},{"name":"time","type":"uint256","indexed":false,"internalType":"uint256"},{"name":"sender","type":"address","indexed":true,"internalType":"address"}],"anonymous":false},{"type":"event","name":"Transfer","inputs":[{"name":"from","type":"address","indexed":true,"internalType":"address"},{"name":"to","type":"address","indexed":true,"internalType":"address"},{"name":"value","type":"uint256","indexed":false,"internalType":"uint256"}],"anonymous":false},{"type":"error","name":"ERC20InsufficientAllowance","inputs":[{"name":"spender","type":"address","internalType":"address"},{"name":"allowance","type":"uint256","internalType":"uint256"},{"name":"needed","type":"uint256","internalType":"uint256"}]},{"type":"error","name":"ERC20InsufficientBalance","inputs":[{"name":"sender","type":"address","internalType":"address"},{"name":"balance","type":"uint256","internalType":"uint256"},{"name":"needed","type":"uint256","internalType":"uint256"}]},{"type":"error","name":"ERC20InvalidApprover","inputs":[{"name":"approver","type":"address","internalType":"address"}]},{"type":"error","name":"ERC20InvalidReceiver","inputs":[{"name":"receiver","type":"address","internalType":"address"}]},{"type":"error","name":"ERC20InvalidSender","inputs":[{"name":"sender","type":"address","internalType":"address"}]},{"type":"error","name":"ERC20InvalidSpender","inputs":[{"name":"spender","type":"address","internalType":"address"}]},{"type":"error","name":"InvalidInitialization","inputs":[]},{"type":"error","name":"NotInitializing","inputs":[]}],"bytecode":{"object":"0x6080604052348015600e575f5ffd5b5060156019565b60c9565b7ff0c57e16840df040f15088dc2f81fe391c3923bec73e23a9662efc9c229c6a00805468010000000000000000900460ff161560685760405163f92ee8a960e01b815260040160405180910390fd5b80546001600160401b039081161460c65780546001600160401b0319166001600160401b0390811782556040519081527fc7f505b2f371ae2175ee4913f4499e1f2633a7b5936321eed1cdaeb6115181d29060200160405180910390a15b50565b610d55806100d65f395ff3fe608060405234801561000f575f5ffd5b50600436106100b1575f3560e01c806342966c681161006e57806342966c681461015e57806370a082311461017157806395d89b41146101a5578063a0712d68146101ad578063a9059cbb146101c0578063dd62ed3e146101d3575f5ffd5b806306fdde03146100b5578063077f224a146100d3578063095ea7b3146100e857806318160ddd1461010b57806323b872dd1461013c578063313ce5671461014f575b5f5ffd5b6100bd6101e6565b6040516100ca919061097c565b60405180910390f35b6100e66100e1366004610a6b565b6102a6565b005b6100fb6100f6366004610adf565b610416565b60405190151581526020016100ca565b7f52c63247e1f47db19d5ce0460030c497f067ca4cebf71ba98eeadabe20bace02545b6040519081526020016100ca565b6100fb61014a366004610b07565b61042f565b604051601281526020016100ca565b6100e661016c366004610b41565b610452565b61012e61017f366004610b58565b6001600160a01b03165f9081525f516020610d005f395f51905f52602052604090205490565b6100bd61049a565b6100e66101bb366004610b41565b6104d8565b6100fb6101ce366004610adf565b610519565b61012e6101e1366004610b78565b610526565b7f52c63247e1f47db19d5ce0460030c497f067ca4cebf71ba98eeadabe20bace0380546060915f516020610d005f395f51905f529161022490610ba9565b80601f016020809104026020016040519081016040528092919081815260200182805461025090610ba9565b801561029b5780601f106102725761010080835404028352916020019161029b565b820191905f5260205f20905b81548152906001019060200180831161027e57829003601f168201915b505050505091505090565b7ff0c57e16840df040f15088dc2f81fe391c3923bec73e23a9662efc9c229c6a008054600160401b810460ff16159067ffffffffffffffff165f811580156102eb5750825b90505f8267ffffffffffffffff1660011480156103075750303b155b905081158015610315575080155b156103335760405163f92ee8a960e01b815260040160405180910390fd5b845467ffffffffffffffff19166001178555831561035d57845460ff60401b1916600160401b1785555b610367888861056f565b61037a86683635c9adc5dea00000610585565b60408051683635c9adc5dea0000081524260208201526001600160a01b038816917ff371d67483809edbc84279729528d26a3e37ce67f1e3a911778dbf88ff927ca2910160405180910390a2831561040c57845460ff60401b19168555604051600181527fc7f505b2f371ae2175ee4913f4499e1f2633a7b5936321eed1cdaeb6115181d29060200160405180910390a15b5050505050505050565b5f336104238185856105be565b60019150505b92915050565b5f3361043c8582856105d0565b610447858585610633565b506001949350505050565b61045c3382610690565b6040805182815242602082015233917fc9e664acae7915e5e50a15075448bd625dd198a1075499af683f6a323c7e4c2f91015b60405180910390a250565b7f52c63247e1f47db19d5ce0460030c497f067ca4cebf71ba98eeadabe20bace0480546060915f516020610d005f395f51905f529161022490610ba9565b6104e23382610585565b6040805182815242602082015233917ff371d67483809edbc84279729528d26a3e37ce67f1e3a911778dbf88ff927ca2910161048f565b5f33610423818585610633565b6001600160a01b039182165f9081527f52c63247e1f47db19d5ce0460030c497f067ca4cebf71ba98eeadabe20bace016020908152604080832093909416825291909152205490565b6105776106c4565b610581828261070f565b5050565b6001600160a01b0382166105b35760405163ec442f0560e01b81525f60048201526024015b60405180910390fd5b6105815f838361075f565b6105cb8383836001610898565b505050565b5f6105db8484610526565b90505f19811461062d578181101561061f57604051637dc7a0d960e11b81526001600160a01b038416600482015260248101829052604481018390526064016105aa565b61062d84848484035f610898565b50505050565b6001600160a01b03831661065c57604051634b637e8f60e11b81525f60048201526024016105aa565b6001600160a01b0382166106855760405163ec442f0560e01b81525f60048201526024016105aa565b6105cb83838361075f565b6001600160a01b0382166106b957604051634b637e8f60e11b81525f60048201526024016105aa565b610581825f8361075f565b7ff0c57e16840df040f15088dc2f81fe391c3923bec73e23a9662efc9c229c6a0054600160401b900460ff1661070d57604051631afcd79f60e31b815260040160405180910390fd5b565b6107176106c4565b5f516020610d005f395f51905f527f52c63247e1f47db19d5ce0460030c497f067ca4cebf71ba98eeadabe20bace036107508482610c25565b506004810161062d8382610c25565b5f516020610d005f395f51905f526001600160a01b0384166107995781816002015f82825461078e9190610ce0565b909155506108099050565b6001600160a01b0384165f90815260208290526040902054828110156107eb5760405163391434e360e21b81526001600160a01b038616600482015260248101829052604481018490526064016105aa565b6001600160a01b0385165f9081526020839052604090209083900390555b6001600160a01b038316610827576002810180548390039055610845565b6001600160a01b0383165f9081526020829052604090208054830190555b826001600160a01b0316846001600160a01b03167fddf252ad1be2c89b69c2b068fc378daa952ba7f163c4a11628f55a4df523b3ef8460405161088a91815260200190565b60405180910390a350505050565b5f516020610d005f395f51905f526001600160a01b0385166108cf5760405163e602df0560e01b81525f60048201526024016105aa565b6001600160a01b0384166108f857604051634a1406b160e11b81525f60048201526024016105aa565b6001600160a01b038086165f9081526001830160209081526040808320938816835292905220839055811561097557836001600160a01b0316856001600160a01b03167f8c5be1e5ebec7d5bd14f71427d1e84f3dd0314c0f7b2291e5b200ac8c7c3b9258560405161096c91815260200190565b60405180910390a35b5050505050565b602081525f82518060208401528060208501604085015e5f604082850101526040601f19601f83011684010191505092915050565b634e487b7160e01b5f52604160045260245ffd5b5f82601f8301126109d4575f5ffd5b813567ffffffffffffffff8111156109ee576109ee6109b1565b604051601f8201601f19908116603f0116810167ffffffffffffffff81118282101715610a1d57610a1d6109b1565b604052818152838201602001851015610a34575f5ffd5b816020850160208301375f918101602001919091529392505050565b80356001600160a01b0381168114610a66575f5ffd5b919050565b5f5f5f60608486031215610a7d575f5ffd5b833567ffffffffffffffff811115610a93575f5ffd5b610a9f868287016109c5565b935050602084013567ffffffffffffffff811115610abb575f5ffd5b610ac7868287016109c5565b925050610ad660408501610a50565b90509250925092565b5f5f60408385031215610af0575f5ffd5b610af983610a50565b946020939093013593505050565b5f5f5f60608486031215610b19575f5ffd5b610b2284610a50565b9250610b3060208501610a50565b929592945050506040919091013590565b5f60208284031215610b51575f5ffd5b5035919050565b5f60208284031215610b68575f5ffd5b610b7182610a50565b9392505050565b5f5f60408385031215610b89575f5ffd5b610b9283610a50565b9150610ba060208401610a50565b90509250929050565b600181811c90821680610bbd57607f821691505b602082108103610bdb57634e487b7160e01b5f52602260045260245ffd5b50919050565b601f8211156105cb57805f5260205f20601f840160051c81016020851015610c065750805b601f840160051c820191505b81811015610975575f8155600101610c12565b815167ffffffffffffffff811115610c3f57610c3f6109b1565b610c5381610c4d8454610ba9565b84610be1565b6020601f821160018114610c85575f8315610c6e5750848201515b5f19600385901b1c1916600184901b178455610975565b5f84815260208120601f198516915b82811015610cb45787850151825560209485019460019092019101610c94565b5084821015610cd157868401515f19600387901b60f8161c191681555b50505050600190811b01905550565b8082018082111561042957634e487b7160e01b5f52601160045260245ffdfe52c63247e1f47db19d5ce0460030c497f067ca4cebf71ba98eeadabe20bace00a2646970667358221220e030538490bc020a6a046b810d43180815d7598efe406347fec453dbe558b01464736f6c634300081b0033","linkReferences":{}},"methodIdentifiers":{"allowance(address,address)":"dd62ed3e","approve(address,uint256)":"095ea7b3","balanceOf(address)":"70a08231","burn(uint256)":"42966c68","decimals()":"313ce567","initialize(string,string,address)":"077f224a","mint(uint256)":"a0712d68","name()":"06fdde03","symbol()":"95d89b41","totalSupply()":"18160ddd","transfer(address,uint256)":"a9059cbb","transferFrom(address,address,uint256)":"23b872dd"},"id":39}