{"abi":[{"type":"constructor","inputs":[{"name":"initialBaseURI","type":"string","internalType":"string"}],"stateMutability":"nonpayable"},{"type":"function","name":"MAX_TOKENS_PER_USER","inputs":[],"outputs":[{"name":"","type":"uint256","internalType":"uint256"}],"stateMutability":"view"},{"type":"function","name":"MINTING_TIME","inputs":[],"outputs":[{"name":"","type":"uint256","internalType":"uint256"}],"stateMutability":"view"},{"type":"function","name":"STT_PRICE","inputs":[],"outputs":[{"name":"","type":"uint256","internalType":"uint256"}],"stateMutability":"view"},{"type":"function","name":"approve","inputs":[{"name":"to","type":"address","internalType":"address"},{"name":"tokenId","type":"uint256","internalType":"uint256"}],"outputs":[],"stateMutability":"nonpayable"},{"type":"function","name":"balanceOf","inputs":[{"name":"owner","type":"address","internalType":"address"}],"outputs":[{"name":"","type":"uint256","internalType":"uint256"}],"stateMutability":"view"},{"type":"function","name":"baseURI","inputs":[],"outputs":[{"name":"","type":"string","internalType":"string"}],"stateMutability":"view"},{"type":"function","name":"getApproved","inputs":[{"name":"tokenId","type":"uint256","internalType":"uint256"}],"outputs":[{"name":"","type":"address","internalType":"address"}],"stateMutability":"view"},{"type":"function","name":"getTokenData","inputs":[{"name":"token","type":"uint256","internalType":"uint256"}],"outputs":[{"name":"","type":"uint256","internalType":"uint256"},{"name":"","type":"address","internalType":"address"},{"name":"","type":"uint256","internalType":"uint256"}],"stateMutability":"view"},{"type":"function","name":"isApprovedForAll","inputs":[{"name":"owner","type":"address","internalType":"address"},{"name":"operator","type":"address","internalType":"address"}],"outputs":[{"name":"","type":"bool","internalType":"bool"}],"stateMutability":"view"},{"type":"function","name":"isMintingActive","inputs":[],"outputs":[{"name":"","type":"bool","internalType":"bool"}],"stateMutability":"view"},{"type":"function","name":"mint","inputs":[{"name":"amount","type":"uint256","internalType":"uint256"}],"outputs":[],"stateMutability":"payable"},{"type":"function","name":"mintedTokensPerUser","inputs":[{"name":"","type":"address","internalType":"address"}],"outputs":[{"name":"","type":"uint256","internalType":"uint256"}],"stateMutability":"view"},{"type":"function","name":"mintingEndTime","inputs":[],"outputs":[{"name":"","type":"uint256","internalType":"uint256"}],"stateMutability":"view"},{"type":"function","name":"mintingStartTime","inputs":[],"outputs":[{"name":"","type":"uint256","internalType":"uint256"}],"stateMutability":"view"},{"type":"function","name":"mintingStarted","inputs":[],"outputs":[{"name":"","type":"bool","internalType":"bool"}],"stateMutability":"view"},{"type":"function","name":"mintingTimestamp","inputs":[{"name":"","type":"uint256","internalType":"uint256"}],"outputs":[{"name":"","type":"uint256","internalType":"uint256"}],"stateMutability":"view"},{"type":"function","name":"name","inputs":[],"outputs":[{"name":"","type":"string","internalType":"string"}],"stateMutability":"view"},{"type":"function","name":"owner","inputs":[],"outputs":[{"name":"","type":"address","internalType":"address"}],"stateMutability":"view"},{"type":"function","name":"ownerOf","inputs":[{"name":"tokenId","type":"uint256","internalType":"uint256"}],"outputs":[{"name":"","type":"address","internalType":"address"}],"stateMutability":"view"},{"type":"function","name":"renounceOwnership","inputs":[],"outputs":[],"stateMutability":"nonpayable"},{"type":"function","name":"safeTransferFrom","inputs":[{"name":"from","type":"address","internalType":"address"},{"name":"to","type":"address","internalType":"address"},{"name":"tokenId","type":"uint256","internalType":"uint256"}],"outputs":[],"stateMutability":"nonpayable"},{"type":"function","name":"safeTransferFrom","inputs":[{"name":"from","type":"address","internalType":"address"},{"name":"to","type":"address","internalType":"address"},{"name":"tokenId","type":"uint256","internalType":"uint256"},{"name":"data","type":"bytes","internalType":"bytes"}],"outputs":[],"stateMutability":"nonpayable"},{"type":"function","name":"setApprovalForAll","inputs":[{"name":"operator","type":"address","internalType":"address"},{"name":"approved","type":"bool","internalType":"bool"}],"outputs":[],"stateMutability":"nonpayable"},{"type":"function","name":"setBaseURI","inputs":[{"name":"newBaseURI","type":"string","internalType":"string"}],"outputs":[],"stateMutability":"nonpayable"},{"type":"function","name":"startMinting","inputs":[],"outputs":[],"stateMutability":"nonpayable"},{"type":"function","name":"supportsInterface","inputs":[{"name":"interfaceId","type":"bytes4","internalType":"bytes4"}],"outputs":[{"name":"","type":"bool","internalType":"bool"}],"stateMutability":"view"},{"type":"function","name":"symbol","inputs":[],"outputs":[{"name":"","type":"string","internalType":"string"}],"stateMutability":"view"},{"type":"function","name":"tokenId","inputs":[],"outputs":[{"name":"","type":"uint256","internalType":"uint256"}],"stateMutability":"view"},{"type":"function","name":"tokenIdsPerUser","inputs":[{"name":"","type":"address","internalType":"address"},{"name":"","type":"uint256","internalType":"uint256"}],"outputs":[{"name":"","type":"uint256","internalType":"uint256"}],"stateMutability":"view"},{"type":"function","name":"tokenURI","inputs":[{"name":"tokenId","type":"uint256","internalType":"uint256"}],"outputs":[{"name":"","type":"string","internalType":"string"}],"stateMutability":"view"},{"type":"function","name":"tokensOf","inputs":[{"name":"user","type":"address","internalType":"address"}],"outputs":[{"name":"","type":"uint256[]","internalType":"uint256[]"}],"stateMutability":"view"},{"type":"function","name":"transferFrom","inputs":[{"name":"from","type":"address","internalType":"address"},{"name":"to","type":"address","internalType":"address"},{"name":"tokenId","type":"uint256","internalType":"uint256"}],"outputs":[],"stateMutability":"nonpayable"},{"type":"function","name":"transferOwnership","inputs":[{"name":"newOwner","type":"address","internalType":"address"}],"outputs":[],"stateMutability":"nonpayable"},{"type":"function","name":"withdraw","inputs":[],"outputs":[],"stateMutability":"nonpayable"},{"type":"event","name":"Approval","inputs":[{"name":"owner","type":"address","indexed":true,"internalType":"address"},{"name":"approved","type":"address","indexed":true,"internalType":"address"},{"name":"tokenId","type":"uint256","indexed":true,"internalType":"uint256"}],"anonymous":false},{"type":"event","name":"ApprovalForAll","inputs":[{"name":"owner","type":"address","indexed":true,"internalType":"address"},{"name":"operator","type":"address","indexed":true,"internalType":"address"},{"name":"approved","type":"bool","indexed":false,"internalType":"bool"}],"anonymous":false},{"type":"event","name":"BaseURIUpdated","inputs":[{"name":"newBaseURI","type":"string","indexed":false,"internalType":"string"}],"anonymous":false},{"type":"event","name":"MintingStarted","inputs":[{"name":"timestamp","type":"uint256","indexed":false,"internalType":"uint256"}],"anonymous":false},{"type":"event","name":"OwnershipTransferred","inputs":[{"name":"previousOwner","type":"address","indexed":true,"internalType":"address"},{"name":"newOwner","type":"address","indexed":true,"internalType":"address"}],"anonymous":false},{"type":"event","name":"TokensMinted","inputs":[{"name":"user","type":"address","indexed":true,"internalType":"address"},{"name":"amount","type":"uint256","indexed":false,"internalType":"uint256"},{"name":"initialTokenId","type":"uint256","indexed":false,"internalType":"uint256"},{"name":"finalTokenId","type":"uint256","indexed":false,"internalType":"uint256"},{"name":"timestamp","type":"uint256","indexed":false,"internalType":"uint256"}],"anonymous":false},{"type":"event","name":"Transfer","inputs":[{"name":"from","type":"address","indexed":true,"internalType":"address"},{"name":"to","type":"address","indexed":true,"internalType":"address"},{"name":"tokenId","type":"uint256","indexed":true,"internalType":"uint256"}],"anonymous":false},{"type":"error","name":"ERC721IncorrectOwner","inputs":[{"name":"sender","type":"address","internalType":"address"},{"name":"tokenId","type":"uint256","internalType":"uint256"},{"name":"owner","type":"address","internalType":"address"}]},{"type":"error","name":"ERC721InsufficientApproval","inputs":[{"name":"operator","type":"address","internalType":"address"},{"name":"tokenId","type":"uint256","internalType":"uint256"}]},{"type":"error","name":"ERC721InvalidApprover","inputs":[{"name":"approver","type":"address","internalType":"address"}]},{"type":"error","name":"ERC721InvalidOperator","inputs":[{"name":"operator","type":"address","internalType":"address"}]},{"type":"error","name":"ERC721InvalidOwner","inputs":[{"name":"owner","type":"address","internalType":"address"}]},{"type":"error","name":"ERC721InvalidReceiver","inputs":[{"name":"receiver","type":"address","internalType":"address"}]},{"type":"error","name":"ERC721InvalidSender","inputs":[{"name":"sender","type":"address","internalType":"address"}]},{"type":"error","name":"ERC721NonexistentToken","inputs":[{"name":"tokenId","type":"uint256","internalType":"uint256"}]},{"type":"error","name":"OwnableInvalidOwner","inputs":[{"name":"owner","type":"address","internalType":"address"}]},{"type":"error","name":"OwnableUnauthorizedAccount","inputs":[{"name":"account","type":"address","internalType":"address"}]},{"type":"error","name":"SomniaDevnetNft__FailedToSendEther","inputs":[]},{"type":"error","name":"SomniaDevnetNft__InvalidAmountOfSTTSent","inputs":[]},{"type":"error","name":"SomniaDevnetNft__InvalidTokenAmount","inputs":[]},{"type":"error","name":"SomniaDevnetNft__MaxTokensPerUserReached","inputs":[]},{"type":"error","name":"SomniaDevnetNft__MintingAlreadyStarted","inputs":[]},{"type":"error","name":"SomniaDevnetNft__MintingEnded","inputs":[]},{"type":"error","name":"SomniaDevnetNft__MintingNotStarted","inputs":[]},{"type":"error","name":"SomniaDevnetNft__NoBalanceToWithdraw","inputs":[]}],"bytecode":{"object":"0x608060405234801561000f575f5ffd5b50604051611e2a380380611e2a83398101604081905261002e91610197565b336040518060400160405280600f81526020016e14dbdb5b9a5851195d9b995d13999d608a1b8152506040518060400160405280600581526020016414d113919560da1b815250815f908161008391906102cb565b50600161009082826102cb565b5050506001600160a01b0381166100c157604051631e4fbdf760e01b81525f60048201526024015b60405180910390fd5b6100ca81610132565b505f81511161011b5760405162461bcd60e51b815260206004820152601860248201527f42617365205552492063616e6e6f7420626520656d707479000000000000000060448201526064016100b8565b5f600755600a61012b82826102cb565b5050610385565b600680546001600160a01b038381166001600160a01b0319831681179093556040519116919082907f8be0079c531659141344cd1fd0a4f28419497f9722a3daafe3b4186f6b6457e0905f90a35050565b634e487b7160e01b5f52604160045260245ffd5b5f602082840312156101a7575f5ffd5b81516001600160401b038111156101bc575f5ffd5b8201601f810184136101cc575f5ffd5b80516001600160401b038111156101e5576101e5610183565b604051601f8201601f19908116603f011681016001600160401b038111828210171561021357610213610183565b60405281815282820160200186101561022a575f5ffd5b8160208401602083015e5f91810160200191909152949350505050565b600181811c9082168061025b57607f821691505b60208210810361027957634e487b7160e01b5f52602260045260245ffd5b50919050565b601f8211156102c657805f5260205f20601f840160051c810160208510156102a45750805b601f840160051c820191505b818110156102c3575f81556001016102b0565b50505b505050565b81516001600160401b038111156102e4576102e4610183565b6102f8816102f28454610247565b8461027f565b6020601f82116001811461032a575f83156103135750848201515b5f19600385901b1c1916600184901b1784556102c3565b5f84815260208120601f198516915b828110156103595787850151825560209485019460019092019101610339565b508482101561037657868401515f19600387901b60f8161c191681555b50505050600190811b01905550565b611a98806103925f395ff3fe6080604052600436106101f1575f3560e01c806370a0823111610108578063a22cb4651161009d578063d411b6671161006d578063d411b66714610580578063df67f66f1461059b578063dfef5f69146105ba578063e985e9c5146105cf578063f2fde38b146105ee575f5ffd5b8063a22cb465146104e1578063b09afec114610500578063b88d4fde14610542578063c87b56dd14610561575f5ffd5b806395bf9d3d116100d857806395bf9d3d1461049057806395d89b41146104a65780639a65ea26146104ba578063a0712d68146104ce575f5ffd5b806370a082311461042c578063715018a61461044b5780638cd3da6e1461045f5780638da5cb5b14610473575f5ffd5b806342842e0e116101895780636352211e116101595780636352211e146103b857806369c5dfd8146103d75780636ac437b0146103eb5780636c0360eb146103ff5780636f8608e414610413575f5ffd5b806342842e0e1461032357806355f804b3146103425780635a3f2672146103615780635cb206b91461038d575f5ffd5b80630ef37320116101c45780630ef37320146102a257806317d70f7c146102db57806323b872dd146102f05780633ccfd60b1461030f575f5ffd5b806301ffc9a7146101f557806306fdde0314610229578063081812fc1461024a578063095ea7b314610281575b5f5ffd5b348015610200575f5ffd5b5061021461020f366004611558565b61060d565b60405190151581526020015b60405180910390f35b348015610234575f5ffd5b5061023d61065e565b60405161022091906115a1565b348015610255575f5ffd5b506102696102643660046115b3565b6106ed565b6040516001600160a01b039091168152602001610220565b34801561028c575f5ffd5b506102a061029b3660046115e5565b610714565b005b3480156102ad575f5ffd5b506102cd6102bc3660046115b3565b600d6020525f908152604090205481565b604051908152602001610220565b3480156102e6575f5ffd5b506102cd60075481565b3480156102fb575f5ffd5b506102a061030a36600461160d565b610723565b34801561031a575f5ffd5b506102a06107b1565b34801561032e575f5ffd5b506102a061033d36600461160d565b610859565b34801561034d575f5ffd5b506102a061035c3660046116d2565b610878565b34801561036c575f5ffd5b5061038061037b366004611717565b610917565b6040516102209190611730565b348015610398575f5ffd5b506102cd6103a7366004611717565b600b6020525f908152604090205481565b3480156103c3575f5ffd5b506102696103d23660046115b3565b610980565b3480156103e2575f5ffd5b506102cd603381565b3480156103f6575f5ffd5b5061021461098a565b34801561040a575f5ffd5b5061023d6109a9565b34801561041e575f5ffd5b506009546102149060ff1681565b348015610437575f5ffd5b506102cd610446366004611717565b610a35565b348015610456575f5ffd5b506102a0610a7a565b34801561046a575f5ffd5b506102cd610a8d565b34801561047e575f5ffd5b506006546001600160a01b0316610269565b34801561049b575f5ffd5b506102cd6203f48081565b3480156104b1575f5ffd5b5061023d610a9f565b3480156104c5575f5ffd5b506102a0610aae565b6102a06104dc3660046115b3565b610b29565b3480156104ec575f5ffd5b506102a06104fb366004611772565b610ce5565b34801561050b575f5ffd5b5061051f61051a3660046115b3565b610cf0565b604080519384526001600160a01b03909216602084015290820152606001610220565b34801561054d575f5ffd5b506102a061055c3660046117ab565b610d16565b34801561056c575f5ffd5b5061023d61057b3660046115b3565b610d2d565b34801561058b575f5ffd5b506102cd67018ab4dc828bc00081565b3480156105a6575f5ffd5b506102cd6105b53660046115e5565b610d92565b3480156105c5575f5ffd5b506102cd60085481565b3480156105da575f5ffd5b506102146105e9366004611822565b610dbd565b3480156105f9575f5ffd5b506102a0610608366004611717565b610dea565b5f6001600160e01b031982166380ac58cd60e01b148061063d57506001600160e01b03198216635b5e139f60e01b145b8061065857506301ffc9a760e01b6001600160e01b03198316145b92915050565b60605f805461066c90611853565b80601f016020809104026020016040519081016040528092919081815260200182805461069890611853565b80156106e35780601f106106ba576101008083540402835291602001916106e3565b820191905f5260205f20905b8154815290600101906020018083116106c657829003601f168201915b5050505050905090565b5f6106f782610e27565b505f828152600460205260409020546001600160a01b0316610658565b61071f828233610e5f565b5050565b6001600160a01b03821661075157604051633250574960e11b81525f60048201526024015b60405180910390fd5b5f61075d838333610e6c565b9050836001600160a01b0316816001600160a01b0316146107ab576040516364283d7b60e01b81526001600160a01b0380861660048301526024820184905282166044820152606401610748565b50505050565b6107b9610f5e565b47806107d8576040516308f6102360e21b815260040160405180910390fd5b5f6107eb6006546001600160a01b031690565b6001600160a01b0316826040515f6040518083038185875af1925050503d805f8114610832576040519150601f19603f3d011682016040523d82523d5f602084013e610837565b606091505b505090508061071f57604051635748330160e11b815260040160405180910390fd5b61087383838360405180602001604052805f815250610d16565b505050565b610880610f5e565b5f8151116108d05760405162461bcd60e51b815260206004820152601860248201527f42617365205552492063616e6e6f7420626520656d70747900000000000000006044820152606401610748565b600a6108dc82826118cf565b507f6741b2fc379fad678116fe3d4d4b9a1a184ab53ba36b86ad0fa66340b1ab41ad8160405161090c91906115a1565b60405180910390a150565b6001600160a01b0381165f908152600c602090815260409182902080548351818402810184019094528084526060939283018282801561097457602002820191905f5260205f20905b815481526020019060010190808311610960575b50505050509050919050565b5f61065882610e27565b6009545f9060ff1680156109a457506109a1610a8d565b42105b905090565b600a80546109b690611853565b80601f01602080910402602001604051908101604052809291908181526020018280546109e290611853565b8015610a2d5780601f10610a0457610100808354040283529160200191610a2d565b820191905f5260205f20905b815481529060010190602001808311610a1057829003601f168201915b505050505081565b5f6001600160a01b038216610a5f576040516322718ad960e21b81525f6004820152602401610748565b506001600160a01b03165f9081526003602052604090205490565b610a82610f5e565b610a8b5f610f8b565b565b5f6203f4806008546109a4919061199e565b60606001805461066c90611853565b610ab6610f5e565b60095460ff1615610ada57604051631afd37e560e21b815260040160405180910390fd5b6009805460ff191660011790554260088190556040517fd9124090290580997a8afe9ccbbbb9343f47fb65e61b15bab931f65de22f3a0191610b1f9190815260200190565b60405180910390a1565b60095460ff16610b4c5760405163f0ce65a360e01b815260040160405180910390fd5b6203f480600854610b5d919061199e565b4210610b7c5760405163039efe0560e51b815260040160405180910390fd5b5f8111610b9c57604051638792fb3b60e01b815260040160405180910390fd5b610bae67018ab4dc828bc000826119b1565b3414610bcd576040516327ba70d960e21b815260040160405180910390fd5b335f908152600b6020526040902054603390610be9908361199e565b10610c0657604051622eff1b60e51b815260040160405180910390fd5b600754335f908152600b602052604081208054849290610c2790849061199e565b90915550610c379050828261199e565b6007555f5b82811015610c935781610c4e816119c8565b925050610c5b3383610fdc565b335f908152600c6020908152604080832080546001818101835591855283852001869055858452600d90925290912042905501610c3c565b5060075460408051848152602081018490529081019190915242606082015233907f3446268fc8181c87ca8580504fff9cf33b6de9c160e4989ae91343e75ff741609060800160405180910390a25050565b61071f33838361103d565b5f5f5f83610cfd85610980565b5f958652600d6020526040909520549095909350915050565b610d21848484610723565b6107ab848484846110db565b6060610d3882610e27565b505f610d42611201565b90505f815111610d605760405180602001604052805f815250610d8b565b80610d6a84611210565b604051602001610d7b9291906119f7565b6040516020818303038152906040525b9392505050565b600c602052815f5260405f208181548110610dab575f80fd5b905f5260205f20015f91509150505481565b6001600160a01b039182165f90815260056020908152604080832093909416825291909152205460ff1690565b610df2610f5e565b6001600160a01b038116610e1b57604051631e4fbdf760e01b81525f6004820152602401610748565b610e2481610f8b565b50565b5f818152600260205260408120546001600160a01b03168061065857604051637e27328960e01b815260048101849052602401610748565b61087383838360016112a0565b5f828152600260205260408120546001600160a01b0390811690831615610e9857610e988184866113a4565b6001600160a01b03811615610ed257610eb35f855f5f6112a0565b6001600160a01b0381165f90815260036020526040902080545f190190555b6001600160a01b03851615610f00576001600160a01b0385165f908152600360205260409020805460010190555b5f8481526002602052604080822080546001600160a01b0319166001600160a01b0389811691821790925591518793918516917fddf252ad1be2c89b69c2b068fc378daa952ba7f163c4a11628f55a4df523b3ef91a4949350505050565b6006546001600160a01b03163314610a8b5760405163118cdaa760e01b8152336004820152602401610748565b600680546001600160a01b038381166001600160a01b0319831681179093556040519116919082907f8be0079c531659141344cd1fd0a4f28419497f9722a3daafe3b4186f6b6457e0905f90a35050565b6001600160a01b03821661100557604051633250574960e11b81525f6004820152602401610748565b5f61101183835f610e6c565b90506001600160a01b03811615610873576040516339e3563760e11b81525f6004820152602401610748565b6001600160a01b03821661106f57604051630b61174360e31b81526001600160a01b0383166004820152602401610748565b6001600160a01b038381165f81815260056020908152604080832094871680845294825291829020805460ff191686151590811790915591519182527f17307eab39ab6107e8899845ad3d59bd9653f200f220920489ca2b5937696c31910160405180910390a3505050565b6001600160a01b0383163b156107ab57604051630a85bd0160e11b81526001600160a01b0384169063150b7a029061111d903390889087908790600401611a0b565b6020604051808303815f875af1925050508015611157575060408051601f3d908101601f1916820190925261115491810190611a47565b60015b6111be573d808015611184576040519150601f19603f3d011682016040523d82523d5f602084013e611189565b606091505b5080515f036111b657604051633250574960e11b81526001600160a01b0385166004820152602401610748565b805181602001fd5b6001600160e01b03198116630a85bd0160e11b146111fa57604051633250574960e11b81526001600160a01b0385166004820152602401610748565b5050505050565b6060600a805461066c90611853565b60605f61121c83611408565b60010190505f8167ffffffffffffffff81111561123b5761123b611647565b6040519080825280601f01601f191660200182016040528015611265576020820181803683370190505b5090508181016020015b5f19016f181899199a1a9b1b9c1cb0b131b232b360811b600a86061a8153600a850494508461126f57509392505050565b80806112b457506001600160a01b03821615155b15611375575f6112c384610e27565b90506001600160a01b038316158015906112ef5750826001600160a01b0316816001600160a01b031614155b801561130257506113008184610dbd565b155b1561132b5760405163a9fbf51f60e01b81526001600160a01b0384166004820152602401610748565b81156113735783856001600160a01b0316826001600160a01b03167f8c5be1e5ebec7d5bd14f71427d1e84f3dd0314c0f7b2291e5b200ac8c7c3b92560405160405180910390a45b505b50505f90815260046020526040902080546001600160a01b0319166001600160a01b0392909216919091179055565b6113af8383836114df565b610873576001600160a01b0383166113dd57604051637e27328960e01b815260048101829052602401610748565b60405163177e802f60e01b81526001600160a01b038316600482015260248101829052604401610748565b5f8072184f03e93ff9f4daa797ed6e38ed64bf6a1f0160401b83106114465772184f03e93ff9f4daa797ed6e38ed64bf6a1f0160401b830492506040015b6d04ee2d6d415b85acef81000000008310611472576d04ee2d6d415b85acef8100000000830492506020015b662386f26fc10000831061149057662386f26fc10000830492506010015b6305f5e10083106114a8576305f5e100830492506008015b61271083106114bc57612710830492506004015b606483106114ce576064830492506002015b600a83106106585760010192915050565b5f6001600160a01b0383161580159061153b5750826001600160a01b0316846001600160a01b0316148061151857506115188484610dbd565b8061153b57505f828152600460205260409020546001600160a01b038481169116145b949350505050565b6001600160e01b031981168114610e24575f5ffd5b5f60208284031215611568575f5ffd5b8135610d8b81611543565b5f81518084528060208401602086015e5f602082860101526020601f19601f83011685010191505092915050565b602081525f610d8b6020830184611573565b5f602082840312156115c3575f5ffd5b5035919050565b80356001600160a01b03811681146115e0575f5ffd5b919050565b5f5f604083850312156115f6575f5ffd5b6115ff836115ca565b946020939093013593505050565b5f5f5f6060848603121561161f575f5ffd5b611628846115ca565b9250611636602085016115ca565b929592945050506040919091013590565b634e487b7160e01b5f52604160045260245ffd5b5f5f67ffffffffffffffff84111561167557611675611647565b50604051601f19601f85018116603f0116810181811067ffffffffffffffff821117156116a4576116a4611647565b6040528381529050808284018510156116bb575f5ffd5b838360208301375f60208583010152509392505050565b5f602082840312156116e2575f5ffd5b813567ffffffffffffffff8111156116f8575f5ffd5b8201601f81018413611708575f5ffd5b61153b8482356020840161165b565b5f60208284031215611727575f5ffd5b610d8b826115ca565b602080825282518282018190525f918401906040840190835b81811015611767578351835260209384019390920191600101611749565b509095945050505050565b5f5f60408385031215611783575f5ffd5b61178c836115ca565b9150602083013580151581146117a0575f5ffd5b809150509250929050565b5f5f5f5f608085870312156117be575f5ffd5b6117c7856115ca565b93506117d5602086016115ca565b925060408501359150606085013567ffffffffffffffff8111156117f7575f5ffd5b8501601f81018713611807575f5ffd5b6118168782356020840161165b565b91505092959194509250565b5f5f60408385031215611833575f5ffd5b61183c836115ca565b915061184a602084016115ca565b90509250929050565b600181811c9082168061186757607f821691505b60208210810361188557634e487b7160e01b5f52602260045260245ffd5b50919050565b601f82111561087357805f5260205f20601f840160051c810160208510156118b05750805b601f840160051c820191505b818110156111fa575f81556001016118bc565b815167ffffffffffffffff8111156118e9576118e9611647565b6118fd816118f78454611853565b8461188b565b6020601f82116001811461192f575f83156119185750848201515b5f19600385901b1c1916600184901b1784556111fa565b5f84815260208120601f198516915b8281101561195e578785015182556020948501946001909201910161193e565b508482101561197b57868401515f19600387901b60f8161c191681555b50505050600190811b01905550565b634e487b7160e01b5f52601160045260245ffd5b808201808211156106585761065861198a565b80820281158282048414176106585761065861198a565b5f600182016119d9576119d961198a565b5060010190565b5f81518060208401855e5f93019283525090919050565b5f61153b611a0583866119e0565b846119e0565b6001600160a01b03858116825284166020820152604081018390526080606082018190525f90611a3d90830184611573565b9695505050505050565b5f60208284031215611a57575f5ffd5b8151610d8b8161154356fea264697066735822122072edb75c36ffc8668e96712c90842fe6d164752cfcdd5b044e4fd6e37aa265b564736f6c634300081c0033","linkReferences":{}},"methodIdentifiers":{"MAX_TOKENS_PER_USER()":"69c5dfd8","MINTING_TIME()":"95bf9d3d","STT_PRICE()":"d411b667","approve(address,uint256)":"095ea7b3","balanceOf(address)":"70a08231","baseURI()":"6c0360eb","getApproved(uint256)":"081812fc","getTokenData(uint256)":"b09afec1","isApprovedForAll(address,address)":"e985e9c5","isMintingActive()":"6ac437b0","mint(uint256)":"a0712d68","mintedTokensPerUser(address)":"5cb206b9","mintingEndTime()":"8cd3da6e","mintingStartTime()":"dfef5f69","mintingStarted()":"6f8608e4","mintingTimestamp(uint256)":"0ef37320","name()":"06fdde03","owner()":"8da5cb5b","ownerOf(uint256)":"6352211e","renounceOwnership()":"715018a6","safeTransferFrom(address,address,uint256)":"42842e0e","safeTransferFrom(address,address,uint256,bytes)":"b88d4fde","setApprovalForAll(address,bool)":"a22cb465","setBaseURI(string)":"55f804b3","startMinting()":"9a65ea26","supportsInterface(bytes4)":"01ffc9a7","symbol()":"95d89b41","tokenId()":"17d70f7c","tokenIdsPerUser(address,uint256)":"df67f66f","tokenURI(uint256)":"c87b56dd","tokensOf(address)":"5a3f2672","transferFrom(address,address,uint256)":"23b872dd","transferOwnership(address)":"f2fde38b","withdraw()":"3ccfd60b"},"id":12}